{
  "_format": "hh-sol-artifact-1",
  "contractName": "VoterDID",
  "sourceName": "contracts/VoterDID.sol",
  "abi": [
    {
      "inputs": [],
      "stateMutability": "nonpayable",
      "type": "constructor"
    },
    {
      "anonymous": false,
      "inputs": [
        {
          "indexed": true,
          "internalType": "string",
          "name": "nationalId",
          "type": "string"
        },
        {
          "indexed": false,
          "internalType": "string",
          "name": "did",
          "type": "string"
        }
      ],
      "name": "DIDRegistered",
      "type": "event"
    },
    {
      "inputs": [
        {
          "internalType": "string",
          "name": "nationalId",
          "type": "string"
        }
      ],
      "name": "getDID",
      "outputs": [
        {
          "internalType": "string",
          "name": "",
          "type": "string"
        }
      ],
      "stateMutability": "view",
      "type": "function"
    },
    {
      "inputs": [],
      "name": "owner",
      "outputs": [
        {
          "internalType": "address",
          "name": "",
          "type": "address"
        }
      ],
      "stateMutability": "view",
      "type": "function"
    },
    {
      "inputs": [
        {
          "internalType": "string",
          "name": "nationalId",
          "type": "string"
        },
        {
          "internalType": "string",
          "name": "did",
          "type": "string"
        }
      ],
      "name": "registerDID",
      "outputs": [],
      "stateMutability": "nonpayable",
      "type": "function"
    },
    {
      "inputs": [
        {
          "internalType": "string",
          "name": "",
          "type": "string"
        }
      ],
      "name": "voterDIDs",
      "outputs": [
        {
          "internalType": "string",
          "name": "",
          "type": "string"
        }
      ],
      "stateMutability": "view",
      "type": "function"
    }
  ],
  "bytecode": "0x60808060405234602757600080546001600160a01b031916331790556104cf908161002d8239f35b600080fdfe6080604052600436101561001257600080fd5b60003560e01c80637e5c39e9146100e45780638da5cb5b146100bb578063ce4d470e146100485763e07838981461004857600080fd5b346100b65760203660031901126100b65760043567ffffffffffffffff81116100b6576100a661009760206100846100b2943690600401610315565b816040519382858094519384920161036c565b810160018152030190206103c9565b6040519182918261046d565b0390f35b600080fd5b346100b65760003660031901126100b6576000546040516001600160a01b039091168152602090f35b346100b65760403660031901126100b65760043567ffffffffffffffff81116100b657610115903690600401610315565b60243567ffffffffffffffff81116100b657610135903690600401610315565b90604051908051916020818184019461014f81838861036c565b81016001815203019020835167ffffffffffffffff81116102dd57610174825461038f565b601f8111610295575b506020601f821160011461020757926101e592827f3821fb4ad323658be2eee296ee06377da01cc275fe45548c9b27eca563bcdbf696936101f7966000916101fc575b508160011b916000199060031b1c19161790555b60405192839283925192839161036c565b8101039020926040519182918261046d565b0390a2005b9050880151896101c0565b601f1982169083600052806000209160005b81811061027d5750836101f796936101e596937f3821fb4ad323658be2eee296ee06377da01cc275fe45548c9b27eca563bcdbf6999660019410610264575b5050811b0190556101d4565b8a015160001960f88460031b161c191690558980610258565b9192602060018192868c015181550194019201610219565b826000526020600020601f830160051c810191602084106102d3575b601f0160051c01905b8181106102c7575061017d565b600081556001016102ba565b90915081906102b1565b634e487b7160e01b600052604160045260246000fd5b90601f8019910116810190811067ffffffffffffffff8211176102dd57604052565b81601f820112156100b65780359067ffffffffffffffff82116102dd576040519261034a601f8401601f1916602001856102f3565b828452602083830101116100b657816000926020809301838601378301015290565b60005b83811061037f5750506000910152565b818101518382015260200161036f565b90600182811c921680156103bf575b60208310146103a957565b634e487b7160e01b600052602260045260246000fd5b91607f169161039e565b90604051918260008254926103dd8461038f565b808452936001811690811561044b5750600114610404575b50610402925003836102f3565b565b90506000929192526020600020906000915b81831061042f57505090602061040292820101386103f5565b6020919350806001915483858901015201910190918492610416565b90506020925061040294915060ff191682840152151560051b820101386103f5565b6040916020825261048d815180928160208601526020868601910161036c565b601f01601f191601019056fea264697066735822122053017b8ce3915f75a82b0580c4997823094265b160879942b2b9afc89262ee9664736f6c634300081c0033",
  "linkReferences": {},
  "deployedLinkReferences": {}
}