{
  "_format": "hh-sol-artifact-1",
  "contractName": "ElectionResults",
  "sourceName": "contracts/ElectionResults.sol",
  "abi": [
    {
      "inputs": [],
      "stateMutability": "nonpayable",
      "type": "constructor"
    },
    {
      "anonymous": false,
      "inputs": [
        {
          "indexed": false,
          "internalType": "string",
          "name": "pollingStationId",
          "type": "string"
        },
        {
          "indexed": false,
          "internalType": "string",
          "name": "electionId",
          "type": "string"
        },
        {
          "indexed": false,
          "internalType": "uint256",
          "name": "timestamp",
          "type": "uint256"
        }
      ],
      "name": "ResultFinalized",
      "type": "event"
    },
    {
      "anonymous": false,
      "inputs": [
        {
          "indexed": false,
          "internalType": "string",
          "name": "pollingStationId",
          "type": "string"
        },
        {
          "indexed": false,
          "internalType": "string",
          "name": "role",
          "type": "string"
        },
        {
          "indexed": false,
          "internalType": "address",
          "name": "signer",
          "type": "address"
        },
        {
          "indexed": false,
          "internalType": "uint256",
          "name": "timestamp",
          "type": "uint256"
        }
      ],
      "name": "ResultSigned",
      "type": "event"
    },
    {
      "anonymous": false,
      "inputs": [
        {
          "indexed": false,
          "internalType": "string",
          "name": "pollingStationId",
          "type": "string"
        },
        {
          "indexed": false,
          "internalType": "string",
          "name": "electionId",
          "type": "string"
        },
        {
          "indexed": false,
          "internalType": "uint256",
          "name": "totalVotes",
          "type": "uint256"
        },
        {
          "indexed": false,
          "internalType": "uint256",
          "name": "timestamp",
          "type": "uint256"
        }
      ],
      "name": "ResultSubmitted",
      "type": "event"
    },
    {
      "inputs": [
        {
          "internalType": "address",
          "name": "person",
          "type": "address"
        }
      ],
      "name": "deactivateKeyPerson",
      "outputs": [],
      "stateMutability": "nonpayable",
      "type": "function"
    },
    {
      "inputs": [
        {
          "internalType": "string",
          "name": "",
          "type": "string"
        }
      ],
      "name": "electionResults",
      "outputs": [
        {
          "internalType": "string",
          "name": "pollingStationId",
          "type": "string"
        },
        {
          "internalType": "string",
          "name": "electionId",
          "type": "string"
        },
        {
          "internalType": "string",
          "name": "resultHash",
          "type": "string"
        },
        {
          "internalType": "string",
          "name": "resultDataUrl",
          "type": "string"
        },
        {
          "internalType": "uint256",
          "name": "totalVotes",
          "type": "uint256"
        },
        {
          "internalType": "bool",
          "name": "presidingOfficerSigned",
          "type": "bool"
        },
        {
          "internalType": "address",
          "name": "presidingOfficer",
          "type": "address"
        },
        {
          "internalType": "bool",
          "name": "partyAgentSigned",
          "type": "bool"
        },
        {
          "internalType": "address",
          "name": "partyAgent",
          "type": "address"
        },
        {
          "internalType": "string",
          "name": "partyAgentParty",
          "type": "string"
        },
        {
          "internalType": "bool",
          "name": "observerSigned",
          "type": "bool"
        },
        {
          "internalType": "address",
          "name": "observer",
          "type": "address"
        },
        {
          "internalType": "string",
          "name": "observerOrganization",
          "type": "string"
        },
        {
          "internalType": "uint256",
          "name": "timestamp",
          "type": "uint256"
        },
        {
          "internalType": "bool",
          "name": "finalized",
          "type": "bool"
        }
      ],
      "stateMutability": "view",
      "type": "function"
    },
    {
      "inputs": [
        {
          "internalType": "string",
          "name": "pollingStationId",
          "type": "string"
        },
        {
          "internalType": "string",
          "name": "candidateId",
          "type": "string"
        }
      ],
      "name": "getCandidateVotes",
      "outputs": [
        {
          "internalType": "uint256",
          "name": "",
          "type": "uint256"
        }
      ],
      "stateMutability": "view",
      "type": "function"
    },
    {
      "inputs": [
        {
          "internalType": "string",
          "name": "pollingStationId",
          "type": "string"
        }
      ],
      "name": "getCandidates",
      "outputs": [
        {
          "internalType": "string[]",
          "name": "",
          "type": "string[]"
        }
      ],
      "stateMutability": "view",
      "type": "function"
    },
    {
      "inputs": [
        {
          "internalType": "string",
          "name": "pollingStationId",
          "type": "string"
        }
      ],
      "name": "getElectionResultDetails",
      "outputs": [
        {
          "internalType": "string",
          "name": "electionId",
          "type": "string"
        },
        {
          "internalType": "string",
          "name": "resultHash",
          "type": "string"
        },
        {
          "internalType": "string",
          "name": "resultUrl",
          "type": "string"
        },
        {
          "internalType": "uint256",
          "name": "totalVotes",
          "type": "uint256"
        },
        {
          "internalType": "uint256",
          "name": "timestamp",
          "type": "uint256"
        },
        {
          "internalType": "bool",
          "name": "finalized",
          "type": "bool"
        }
      ],
      "stateMutability": "view",
      "type": "function"
    },
    {
      "inputs": [],
      "name": "getPollingStationCount",
      "outputs": [
        {
          "internalType": "uint256",
          "name": "",
          "type": "uint256"
        }
      ],
      "stateMutability": "view",
      "type": "function"
    },
    {
      "inputs": [
        {
          "internalType": "string",
          "name": "pollingStationId",
          "type": "string"
        }
      ],
      "name": "getSignatureStatus",
      "outputs": [
        {
          "internalType": "bool",
          "name": "presOfficerSigned",
          "type": "bool"
        },
        {
          "internalType": "bool",
          "name": "partyAgentSigned",
          "type": "bool"
        },
        {
          "internalType": "bool",
          "name": "observerSigned",
          "type": "bool"
        },
        {
          "internalType": "bool",
          "name": "isFinalized",
          "type": "bool"
        }
      ],
      "stateMutability": "view",
      "type": "function"
    },
    {
      "inputs": [
        {
          "internalType": "string",
          "name": "pollingStationId",
          "type": "string"
        }
      ],
      "name": "getSignerDetails",
      "outputs": [
        {
          "internalType": "address",
          "name": "presOfficer",
          "type": "address"
        },
        {
          "internalType": "address",
          "name": "partyAgent",
          "type": "address"
        },
        {
          "internalType": "string",
          "name": "partyName",
          "type": "string"
        },
        {
          "internalType": "address",
          "name": "observer",
          "type": "address"
        },
        {
          "internalType": "string",
          "name": "orgName",
          "type": "string"
        }
      ],
      "stateMutability": "view",
      "type": "function"
    },
    {
      "inputs": [
        {
          "internalType": "address",
          "name": "",
          "type": "address"
        }
      ],
      "name": "keyPersons",
      "outputs": [
        {
          "internalType": "string",
          "name": "nationalId",
          "type": "string"
        },
        {
          "internalType": "string",
          "name": "role",
          "type": "string"
        },
        {
          "internalType": "string",
          "name": "pollingStation",
          "type": "string"
        },
        {
          "internalType": "string",
          "name": "party",
          "type": "string"
        },
        {
          "internalType": "string",
          "name": "organization",
          "type": "string"
        },
        {
          "internalType": "bool",
          "name": "isActive",
          "type": "bool"
        }
      ],
      "stateMutability": "view",
      "type": "function"
    },
    {
      "inputs": [],
      "name": "owner",
      "outputs": [
        {
          "internalType": "address",
          "name": "",
          "type": "address"
        }
      ],
      "stateMutability": "view",
      "type": "function"
    },
    {
      "inputs": [
        {
          "internalType": "uint256",
          "name": "",
          "type": "uint256"
        }
      ],
      "name": "pollingStations",
      "outputs": [
        {
          "internalType": "string",
          "name": "",
          "type": "string"
        }
      ],
      "stateMutability": "view",
      "type": "function"
    },
    {
      "inputs": [
        {
          "internalType": "address",
          "name": "person",
          "type": "address"
        },
        {
          "internalType": "string",
          "name": "nationalId",
          "type": "string"
        },
        {
          "internalType": "string",
          "name": "role",
          "type": "string"
        },
        {
          "internalType": "string",
          "name": "pollingStation",
          "type": "string"
        },
        {
          "internalType": "string",
          "name": "party",
          "type": "string"
        },
        {
          "internalType": "string",
          "name": "organization",
          "type": "string"
        }
      ],
      "name": "registerKeyPerson",
      "outputs": [],
      "stateMutability": "nonpayable",
      "type": "function"
    },
    {
      "inputs": [
        {
          "internalType": "string",
          "name": "pollingStationId",
          "type": "string"
        }
      ],
      "name": "signAsObserver",
      "outputs": [],
      "stateMutability": "nonpayable",
      "type": "function"
    },
    {
      "inputs": [
        {
          "internalType": "string",
          "name": "pollingStationId",
          "type": "string"
        }
      ],
      "name": "signAsPartyAgent",
      "outputs": [],
      "stateMutability": "nonpayable",
      "type": "function"
    },
    {
      "inputs": [
        {
          "internalType": "string",
          "name": "pollingStationId",
          "type": "string"
        },
        {
          "internalType": "string",
          "name": "electionId",
          "type": "string"
        },
        {
          "internalType": "string",
          "name": "resultHash",
          "type": "string"
        },
        {
          "internalType": "string",
          "name": "resultDataUrl",
          "type": "string"
        },
        {
          "internalType": "uint256",
          "name": "totalVotes",
          "type": "uint256"
        },
        {
          "internalType": "string[]",
          "name": "candidateIds",
          "type": "string[]"
        },
        {
          "internalType": "uint256[]",
          "name": "votes",
          "type": "uint256[]"
        }
      ],
      "name": "submitResults",
      "outputs": [],
      "stateMutability": "nonpayable",
      "type": "function"
    }
  ],
  "bytecode": "0x60808060405234602757600080546001600160a01b03191633179055611e1d908161002d8239f35b600080fdfe6080604052600436101561001257600080fd5b6000803560e01c806326fa69881461139857806334408ee9146112375780633b468ad31461115c57806345534763146110655780634f84d99814610fa45780635da87c7c1461083957806381929bac1461068e5780638da5cb5b146106675780638e0377c0146105e75780639140345014610517578063a769bfaa14610456578063b496802714610438578063b7ff50fc146103ad578063fe2442d7146103245763ff0bd9d7146100c257600080fd5b34610321576020366003190112610321576004356001600160401b03811161031f576101137ff8199f38537119533219c04d4f21e0645cfa7cdd3304001cc13f10c0f62c5b1e91369060040161157c565b60406101be81516101248382611545565b6009815260208101684f627365727665727360b81b8152338752600360205261015560ff6005868a200154166118e6565b338752600360205260018488200184516101858161017760208201809561194e565b03601f198101835282611545565b519020916101b56020865180936101a4838301968792519283916116b0565b81010301601f198101835282611545565b519020146119bc565b61027b602082516101f96101f260028751938581818b01966101e181838a6116b0565b8101600181520301902001546115d2565b1515611a2e565b61022460ff600d865185818a5161021181838a6116b0565b8101600181520301902001541615611aa0565b3387526003825261026b600285892001855161024781610177878201809561194e565b51902085518481019061026286828b516101a481878b6116b0565b51902014611b03565b83518093819287519283916116b0565b60019082018181529190910391909101909120600a810180546001600160a81b0319163360081b610100600160a81b03161790921790915533855260036020526102cd600483872001600b8301611b75565b600c429101556102dc82611c60565b6102f08151926080845260808401906116d3565b684f627365727665727360b81b602084830392838287015260098152015233828401524260608401520190a180f35b505b80fd5b50346103215760203660031901126103215760043560025481101561031f5760025481101561039957600290915261039590610381907f405787fa12a823e0f2b7631cc41b3ba8828b3321ca811111fa75cd3aa3bb5ace0161160c565b6040519182916020835260208301906116d3565b0390f35b634e487b7160e01b82526032600452602482fd5b5034610321576040366003190112610321576004356001600160401b03811161031f576103de90369060040161157c565b90602435906001600160401b03821161032157602061042f84600561041e8461040a3660048a0161157c565b9381604051938285809451938492016116b0565b81016001815203019020019061170f565b54604051908152f35b50346103215780600319360112610321576020600254604051908152f35b50346103215760203660031901126103215761047061152a565b61048460018060a01b038354163314611763565b6001600160a01b03168082526003602052604082206005015460ff16156104be578152600360205260408120600501805460ff1916905580f35b60405162461bcd60e51b815260206004820152602b60248201527f456c656374696f6e526573756c74733a20706572736f6e20697320616c72656160448201526a647920696e61637469766560a81b6064820152608490fd5b503461032157602036600319011261032157600435906001600160401b03821161032157610560602061054d366004860161157c565b81604051938285809451938492016116b0565b6001908201908152030190206007810154600880830154600a8401546001600160a01b039182169493831c821693610395939190911c909116906105d46105b5600b6105ae6009850161160c565b930161160c565b916040519687968752602087015260a0604087015260a08601906116d3565b91606085015283820360808501526116d3565b503461032157602036600319011261032157600435906001600160401b03821161032157608061061f602061054d366004870161157c565b8101600181520301902060078101549060ff600d81600a84015416920154169060ff604051938181161515855260a81c16151560208401521515604083015215156060820152f35b5034610321578060031936011261032157546040516001600160a01b039091168152602090f35b503461032157602036600319011261032157600435906001600160401b03821161032157506106c190369060040161157c565b60405181818093516020819301916106d8926116b0565b8101600181520360200190206106ed8161160c565b6106f96001830161160c565b916107066002820161160c565b6107126003830161160c565b60048301546007840154600885015490916001600160a01b039091169061073b6009870161160c565b91600a87015493600b880161074f9061160c565b95600c89015498600d015460ff16976040519b8c9b6101e08d526101e08d01610777916116d3565b8c810360208e0152610788916116d3565b8b810360408d0152610799916116d3565b8a810360608c01526107aa916116d3565b9260808a015260ff8116151560a08a0152600160a01b600190038160081c1660c08a015260a81c60ff16151560e08901526101008801528681036101208801526107f3916116d3565b60ff8216151561014087015260089190911c6001600160a01b0316610160860152848103610180860152610826916116d3565b916101a084015215156101c08301520390f35b50346103215760e0366003190112610321576004356001600160401b03811161031f5761086a90369060040161157c565b6024356001600160401b038111610f655761088990369060040161157c565b906044356001600160401b038111610fa0576108a990369060040161157c565b6064356001600160401b038111610f9c576108c890369060040161157c565b936084359060a435936001600160401b03851161031f573660238601121561031f578460040135946108f9866116f8565b956109076040519788611545565b80875260051b810160240160208701368211610f9c5760248301905b828210610f69575050505060c435936001600160401b038511610f655736602386011215610f655784600401359461095a866116f8565b956109686040519788611545565b8087526024602088019160051b83010191368311610f6157602401905b828210610f5157505050604090610a2082516109a18482611545565b601681526020810175507265736964696e67204f6666696365722028504f2960501b815233875260036020526109df60ff6005878a200154166118e6565b33875260036020526001858820018551610a018161017760208201809561194e565b519020916101b56020875180936101a4838301968792519283916116b0565b8651865103610ed95733845260036020526002828520018251610a4b8161017760208201809561194e565b519020610a7083519160208301865193610262602082818b01976101a481878b6116b0565b610a876002845160208188516101e18183896116b0565b610ceb57600254600160401b811015610cd757806001610aac92016002556002611735565b610cc357610b1b92610b098b610ae7602060019f96610ace8b610b129861181c565b92509250929c9d505b8651809381928a519283916116b0565b8101600181520301902099610afc868c61181c565b610b098c60018d0161181c565b60028b0161181c565b6003890161181c565b8360048801558297600688019460058901995b8851811015610bc157610b41818a611c4c565b518754600160401b811015610bad57806001610b6092018a5589611735565b610b9957610b928d610b8c85610b858f95978f610b80829960019b61181c565b611c4c565b5194611c4c565b5161170f565b5501610b2e565b634e487b7160e01b88526004889052602488fd5b634e487b7160e01b88526041600452602488fd5b506007890180546001600160a81b0319163360081b610100600160a81b03161760011790557ff8199f38537119533219c04d4f21e0645cfa7cdd3304001cc13f10c0f62c5b1e9392917f864a7b3f39f280adcf854cf2647567b1db19a6e614ab332c04472700ef6f240f91610c6591908b600c42910155610c4186611c60565b845192839260808452610c5760808501896116d3565b9084820360208601526116d3565b90858301524260608301520390a1610c878151926080845260808401906116d3565b75507265736964696e67204f6666696365722028504f2960501b602084830392838287015260168152015233828401524260608401520190a180f35b634e487b7160e01b86526004869052602486fd5b634e487b7160e01b86526041600452602486fd5b979293959096919460ff600d610d0d60208c8a51809381928c519283916116b0565b81016001815203019020015416610e7c57600199875b6006610d3b60208d8b51809381928d519283916116b0565b810160018152030190200154811015610db7578089610db08a8f948f6020610da0918e610d90610d8a6005966006895187818751610d7a81838c6116b0565b8101600181520301902001611735565b5061160c565b95519384928392519283916116b0565b810189815203019020019061170f565b5501610d23565b509196949380999891969398600685516020818951610dd78183886116b0565b810160018152030190200180549088815581610e08575b5050610b129150610b1b93929a9b506020610ae791610ad7565b885260208820908101905b81811015610dee578d91929350610e2a81546115d2565b80610e3b575b5001908b9291610e13565b601f81118314610e5057508881555b38610e30565b818a5260208a20610e6b91601f0160051c81019084016117c0565b808952886020812081835555610e4a565b855162461bcd60e51b815260206004820152603060248201527f456c656374696f6e526573756c74733a2063616e6e6f7420757064617465206660448201526f696e616c697a656420726573756c747360801b6064820152608490fd5b815162461bcd60e51b815260206004820152604560248201527f456c656374696f6e526573756c74733a2063616e64696461746520494473206160448201527f6e6420766f74657320617272617973206d75737420686176652073616d65206c6064820152640cadccee8d60db1b608482015260a490fd5b8135815260209182019101610985565b8580fd5b8280fd5b81356001600160401b038111610f9857602091610f8d83926024369189010161157c565b815201910190610923565b8680fd5b8480fd5b8380fd5b503461032157602036600319011261032157600435906001600160401b03821161032157611033610fdd602061054d366004870161157c565b810160018152030190206004810154600c82015460ff600d840154169061104f6110096001860161160c565b9461104161101e60036105ae6002850161160c565b9160405198899860c08a5260c08a01906116d3565b9088820360208a01526116d3565b9086820360408801526116d3565b9260608501526080840152151560a08301520390f35b5034610321576020366003190112610321576004356001600160401b03811161031f5761109d602061054d600693369060040161157c565b810160018152030190200180546110b3816116f8565b906110c16040519283611545565b80825260208201809385526020852085915b83831061113f57868587604051928392602084019060208552518091526040840160408260051b8601019392905b82821061111057505050500390f35b9193600191939550602061112f8192603f198a820301865288516116d3565b9601920192018594939192611101565b60016020819261114e8561160c565b8152019201920191906110d3565b5034610321576020366003190112610321576111f3906040906001600160a01b0361118561152a565b1681526003602052206111978161160c565b9061122b6111a76001830161160c565b9161121d6111b76002830161160c565b61120f6111c66003850161160c565b9161120160ff60056111da6004890161160c565b97015416976040519a8b9a60c08c5260c08c01906116d3565b908a820360208c01526116d3565b9088820360408a01526116d3565b9086820360608801526116d3565b9084820360808601526116d3565b90151560a08301520390f35b5034610321576020366003190112610321576004356001600160401b03811161031f576112897ff8199f38537119533219c04d4f21e0645cfa7cdd3304001cc13f10c0f62c5b1e91369060040161157c565b60406112ce815161129a8382611545565b600c8152602081016b5061727479204167656e747360a01b8152338752600360205261015560ff6005868a200154166118e6565b6112f1602082516101f96101f260028751938581818b01966101e181838a6116b0565b60019082019081520301902060078101805460ff60a81b1916600160a81b1790556008810180546001600160a01b03191633908117909155855260036020819052828620611343910160098301611b75565b600c4291015561135282611c60565b6113668151926080845260808401906116d3565b6b5061727479204167656e747360a01b6020848303928382870152600c8152015233828401524260608401520190a180f35b50346103215760c0366003190112610321576113b261152a565b6024356001600160401b038111610f65576113d190369060040161157c565b6044356001600160401b038111610fa0576113f090369060040161157c565b6064356001600160401b038111610f9c5761140f90369060040161157c565b6084356001600160401b038111610f615761142e90369060040161157c565b9060a4356001600160401b038111610f985761144e90369060040161157c565b9261146360018060a01b038854163314611763565b6040519460c086018681106001600160401b038211176115165760059695936114e46114f89461150297946114ee9460405289526020890190815260408901928352606089019485526080890196875260a089019a60018c5260018060a01b03168c5260036020526114da60408d2099518a61181c565b516001890161181c565b516002870161181c565b516003850161181c565b516004830161181c565b019051151560ff8019835416911617905580f35b634e487b7160e01b89526041600452602489fd5b600435906001600160a01b038216820361154057565b600080fd5b90601f801991011681019081106001600160401b0382111761156657604052565b634e487b7160e01b600052604160045260246000fd5b81601f82011215611540578035906001600160401b03821161156657604051926115b0601f8401601f191660200185611545565b8284526020838301011161154057816000926020809301838601378301015290565b90600182811c92168015611602575b60208310146115ec57565b634e487b7160e01b600052602260045260246000fd5b91607f16916115e1565b9060405191826000825492611620846115d2565b808452936001811690811561168e5750600114611647575b5061164592500383611545565b565b90506000929192526020600020906000915b8183106116725750509060206116459282010138611638565b6020919350806001915483858901015201910190918492611659565b90506020925061164594915060ff191682840152151560051b82010138611638565b60005b8381106116c35750506000910152565b81810151838201526020016116b3565b906020916116ec815180928185528580860191016116b0565b601f01601f1916010190565b6001600160401b0381116115665760051b60200190565b6020906117299282604051948386809551938492016116b0565b82019081520301902090565b805482101561174d5760005260206000200190600090565b634e487b7160e01b600052603260045260246000fd5b1561176a57565b60405162461bcd60e51b815260206004820152602860248201527f456c656374696f6e526573756c74733a2063616c6c6572206973206e6f74207460448201526734329037bbb732b960c11b6064820152608490fd5b8181106117cb575050565b600081556001016117c0565b9190601f81116117e657505050565b611645926000526020600020906020601f840160051c83019310611812575b601f0160051c01906117c0565b9091508190611805565b91909182516001600160401b038111611566576118438161183d84546115d2565b846117d7565b6020601f8211600114611884578190611875939495600092611879575b50508160011b916000199060031b1c19161790565b9055565b015190503880611860565b601f1982169083600052806000209160005b8181106118ce575095836001959697106118b5575b505050811b019055565b015160001960f88460031b161c191690553880806118ab565b9192602060018192868b015181550194019201611896565b156118ed57565b60405162461bcd60e51b815260206004820152603360248201527f456c656374696f6e526573756c74733a2063616c6c6572206973206e6f742061604482015272371030b1ba34bb329035b2bc903832b939b7b760691b6064820152608490fd5b6000929181549161195e836115d2565b92600181169081156119a9575060011461197757505050565b909192935060005260206000206000905b8382106119955750500190565b600181602092548486015201910190611988565b60ff191683525050811515909102019150565b156119c357565b60405162461bcd60e51b815260206004820152603760248201527f456c656374696f6e526573756c74733a2063616c6c657220646f6573206e6f7460448201527f20686176652074686520726571756972656420726f6c650000000000000000006064820152608490fd5b15611a3557565b60405162461bcd60e51b815260206004820152603a60248201527f456c656374696f6e526573756c74733a206e6f20726573756c747320666f756e60448201527f6420666f72207468697320706f6c6c696e672073746174696f6e0000000000006064820152608490fd5b15611aa757565b60405162461bcd60e51b815260206004820152602e60248201527f456c656374696f6e526573756c74733a20726573756c74732061726520616c7260448201526d1958591e48199a5b985b1a5e995960921b6064820152608490fd5b15611b0a57565b60405162461bcd60e51b815260206004820152603f60248201527f456c656374696f6e526573756c74733a2063616c6c6572206973206e6f74206160448201527f737369676e656420746f207468697320706f6c6c696e672073746174696f6e006064820152608490fd5b919091828114611c4757611b8983546115d2565b6001600160401b03811161156657611ba58161183d84546115d2565b600093601f8211600114611be2576118759293948291600092611bd75750508160011b916000199060031b1c19161790565b015490503880611860565b845260208085208386529085209094601f198316815b818110611c2f57509583600195969710611c1657505050811b019055565b015460001960f88460031b161c191690553880806118ab565b9192600180602092868b015481550194019201611bf8565b509050565b805182101561174d5760209160051b010190565b6040516020818351611c7581838588016116b0565b81016001815203019020600781015460ff81169081611dd9575b5080611dcb575b611c9e575050565b80600d600192018260ff1982541617905501611cc5604051926060845260608401906116d3565b908282036020840152600091815491611cdd836115d2565b8083529260018116908115611d875750600114611d27575b50505090807f2a8969a8b1cc2562764eee7e8f40f4a449c1dcdb5febff06f45c736c3e07d6f2924260408301520390a1565b909192506000526020600020916000925b818410611d6d57505001602001817f2a8969a8b1cc2562764eee7e8f40f4a449c1dcdb5febff06f45c736c3e07d6f238611cf5565b600181602092959395548385870101520191019290611d38565b86955060209392507f2a8969a8b1cc2562764eee7e8f40f4a449c1dcdb5febff06f45c736c3e07d6f29694915060ff191683830152151560051b0101919238611cf5565b5060ff600a82015416611c96565b60ff915060a81c1638611c8f56fea2646970667358221220013645b7a4ae86dc7979fe29a50515f1cc8962831c901cbfd87e66d70f21dc3464736f6c634300081c0033",
  "linkReferences": {},
  "deployedLinkReferences": {}
}