{"contracts/VoterDID.sol":{"VoterDID":{"abi":[{"inputs":[],"stateMutability":"nonpayable","type":"constructor"},{"anonymous":false,"inputs":[{"indexed":true,"internalType":"string","name":"nationalId","type":"string"},{"indexed":false,"internalType":"string","name":"did","type":"string"}],"name":"DIDRegistered","type":"event"},{"inputs":[{"internalType":"string","name":"nationalId","type":"string"}],"name":"getDID","outputs":[{"internalType":"string","name":"","type":"string"}],"stateMutability":"view","type":"function"},{"inputs":[],"name":"owner","outputs":[{"internalType":"address","name":"","type":"address"}],"stateMutability":"view","type":"function"},{"inputs":[{"internalType":"string","name":"nationalId","type":"string"},{"internalType":"string","name":"did","type":"string"}],"name":"registerDID","outputs":[],"stateMutability":"nonpayable","type":"function"},{"inputs":[{"internalType":"string","name":"","type":"string"}],"name":"voterDIDs","outputs":[{"internalType":"string","name":"","type":"string"}],"stateMutability":"view","type":"function"}],"evm":{"bytecode":{"linkReferences":{},"object":"60808060405234602757600080546001600160a01b031916331790556104cf908161002d8239f35b600080fdfe6080604052600436101561001257600080fd5b60003560e01c80637e5c39e9146100e45780638da5cb5b146100bb578063ce4d470e146100485763e07838981461004857600080fd5b346100b65760203660031901126100b65760043567ffffffffffffffff81116100b6576100a661009760206100846100b2943690600401610315565b816040519382858094519384920161036c565b810160018152030190206103c9565b6040519182918261046d565b0390f35b600080fd5b346100b65760003660031901126100b6576000546040516001600160a01b039091168152602090f35b346100b65760403660031901126100b65760043567ffffffffffffffff81116100b657610115903690600401610315565b60243567ffffffffffffffff81116100b657610135903690600401610315565b90604051908051916020818184019461014f81838861036c565b81016001815203019020835167ffffffffffffffff81116102dd57610174825461038f565b601f8111610295575b506020601f821160011461020757926101e592827f3821fb4ad323658be2eee296ee06377da01cc275fe45548c9b27eca563bcdbf696936101f7966000916101fc575b508160011b916000199060031b1c19161790555b60405192839283925192839161036c565b8101039020926040519182918261046d565b0390a2005b9050880151896101c0565b601f1982169083600052806000209160005b81811061027d5750836101f796936101e596937f3821fb4ad323658be2eee296ee06377da01cc275fe45548c9b27eca563bcdbf6999660019410610264575b5050811b0190556101d4565b8a015160001960f88460031b161c191690558980610258565b9192602060018192868c015181550194019201610219565b826000526020600020601f830160051c810191602084106102d3575b601f0160051c01905b8181106102c7575061017d565b600081556001016102ba565b90915081906102b1565b634e487b7160e01b600052604160045260246000fd5b90601f8019910116810190811067ffffffffffffffff8211176102dd57604052565b81601f820112156100b65780359067ffffffffffffffff82116102dd576040519261034a601f8401601f1916602001856102f3565b828452602083830101116100b657816000926020809301838601378301015290565b60005b83811061037f5750506000910152565b818101518382015260200161036f565b90600182811c921680156103bf575b60208310146103a957565b634e487b7160e01b600052602260045260246000fd5b91607f169161039e565b90604051918260008254926103dd8461038f565b808452936001811690811561044b5750600114610404575b50610402925003836102f3565b565b90506000929192526020600020906000915b81831061042f57505090602061040292820101386103f5565b6020919350806001915483858901015201910190918492610416565b90506020925061040294915060ff191682840152151560051b820101386103f5565b6040916020825261048d815180928160208601526020868601910161036c565b601f01601f191601019056fea264697066735822122053017b8ce3915f75a82b0580c4997823094265b160879942b2b9afc89262ee9664736f6c634300081c0033","opcodes":"PUSH1 0x80 DUP1 PUSH1 0x40 MSTORE CALLVALUE PUSH1 0x27 JUMPI PUSH1 0x0 DUP1 SLOAD PUSH1 0x1 PUSH1 0x1 PUSH1 0xA0 SHL SUB NOT AND CALLER OR SWAP1 SSTORE PUSH2 0x4CF SWAP1 DUP2 PUSH2 0x2D DUP3 CODECOPY RETURN JUMPDEST PUSH1 0x0 DUP1 REVERT INVALID PUSH1 0x80 PUSH1 0x40 MSTORE PUSH1 0x4 CALLDATASIZE LT ISZERO PUSH2 0x12 JUMPI PUSH1 0x0 DUP1 REVERT JUMPDEST PUSH1 0x0 CALLDATALOAD PUSH1 0xE0 SHR DUP1 PUSH4 0x7E5C39E9 EQ PUSH2 0xE4 JUMPI DUP1 PUSH4 0x8DA5CB5B EQ PUSH2 0xBB JUMPI DUP1 PUSH4 0xCE4D470E EQ PUSH2 0x48 JUMPI PUSH4 0xE0783898 EQ PUSH2 0x48 JUMPI PUSH1 0x0 DUP1 REVERT JUMPDEST CALLVALUE PUSH2 0xB6 JUMPI PUSH1 0x20 CALLDATASIZE PUSH1 0x3 NOT ADD SLT PUSH2 0xB6 JUMPI PUSH1 0x4 CALLDATALOAD PUSH8 0xFFFFFFFFFFFFFFFF DUP2 GT PUSH2 0xB6 JUMPI PUSH2 0xA6 PUSH2 0x97 PUSH1 0x20 PUSH2 0x84 PUSH2 0xB2 SWAP5 CALLDATASIZE SWAP1 PUSH1 0x4 ADD PUSH2 0x315 JUMP JUMPDEST DUP2 PUSH1 0x40 MLOAD SWAP4 DUP3 DUP6 DUP1 SWAP5 MLOAD SWAP4 DUP5 SWAP3 ADD PUSH2 0x36C JUMP JUMPDEST DUP2 ADD PUSH1 0x1 DUP2 MSTORE SUB ADD SWAP1 KECCAK256 PUSH2 0x3C9 JUMP JUMPDEST PUSH1 0x40 MLOAD SWAP2 DUP3 SWAP2 DUP3 PUSH2 0x46D JUMP JUMPDEST SUB SWAP1 RETURN JUMPDEST PUSH1 0x0 DUP1 REVERT JUMPDEST CALLVALUE PUSH2 0xB6 JUMPI PUSH1 0x0 CALLDATASIZE PUSH1 0x3 NOT ADD SLT PUSH2 0xB6 JUMPI PUSH1 0x0 SLOAD PUSH1 0x40 MLOAD PUSH1 0x1 PUSH1 0x1 PUSH1 0xA0 SHL SUB SWAP1 SWAP2 AND DUP2 MSTORE PUSH1 0x20 SWAP1 RETURN JUMPDEST CALLVALUE PUSH2 0xB6 JUMPI PUSH1 0x40 CALLDATASIZE PUSH1 0x3 NOT ADD SLT PUSH2 0xB6 JUMPI PUSH1 0x4 CALLDATALOAD PUSH8 0xFFFFFFFFFFFFFFFF DUP2 GT PUSH2 0xB6 JUMPI PUSH2 0x115 SWAP1 CALLDATASIZE SWAP1 PUSH1 0x4 ADD PUSH2 0x315 JUMP JUMPDEST PUSH1 0x24 CALLDATALOAD PUSH8 0xFFFFFFFFFFFFFFFF DUP2 GT PUSH2 0xB6 JUMPI PUSH2 0x135 SWAP1 CALLDATASIZE SWAP1 PUSH1 0x4 ADD PUSH2 0x315 JUMP JUMPDEST SWAP1 PUSH1 0x40 MLOAD SWAP1 DUP1 MLOAD SWAP2 PUSH1 0x20 DUP2 DUP2 DUP5 ADD SWAP5 PUSH2 0x14F DUP2 DUP4 DUP9 PUSH2 0x36C JUMP JUMPDEST DUP2 ADD PUSH1 0x1 DUP2 MSTORE SUB ADD SWAP1 KECCAK256 DUP4 MLOAD PUSH8 0xFFFFFFFFFFFFFFFF DUP2 GT PUSH2 0x2DD JUMPI PUSH2 0x174 DUP3 SLOAD PUSH2 0x38F JUMP JUMPDEST PUSH1 0x1F DUP2 GT PUSH2 0x295 JUMPI JUMPDEST POP PUSH1 0x20 PUSH1 0x1F DUP3 GT PUSH1 0x1 EQ PUSH2 0x207 JUMPI SWAP3 PUSH2 0x1E5 SWAP3 DUP3 PUSH32 0x3821FB4AD323658BE2EEE296EE06377DA01CC275FE45548C9B27ECA563BCDBF6 SWAP7 SWAP4 PUSH2 0x1F7 SWAP7 PUSH1 0x0 SWAP2 PUSH2 0x1FC JUMPI JUMPDEST POP DUP2 PUSH1 0x1 SHL SWAP2 PUSH1 0x0 NOT SWAP1 PUSH1 0x3 SHL SHR NOT AND OR SWAP1 SSTORE JUMPDEST PUSH1 0x40 MLOAD SWAP3 DUP4 SWAP3 DUP4 SWAP3 MLOAD SWAP3 DUP4 SWAP2 PUSH2 0x36C JUMP JUMPDEST DUP2 ADD SUB SWAP1 KECCAK256 SWAP3 PUSH1 0x40 MLOAD SWAP2 DUP3 SWAP2 DUP3 PUSH2 0x46D JUMP JUMPDEST SUB SWAP1 LOG2 STOP JUMPDEST SWAP1 POP DUP9 ADD MLOAD DUP10 PUSH2 0x1C0 JUMP JUMPDEST PUSH1 0x1F NOT DUP3 AND SWAP1 DUP4 PUSH1 0x0 MSTORE DUP1 PUSH1 0x0 KECCAK256 SWAP2 PUSH1 0x0 JUMPDEST DUP2 DUP2 LT PUSH2 0x27D JUMPI POP DUP4 PUSH2 0x1F7 SWAP7 SWAP4 PUSH2 0x1E5 SWAP7 SWAP4 PUSH32 0x3821FB4AD323658BE2EEE296EE06377DA01CC275FE45548C9B27ECA563BCDBF6 SWAP10 SWAP7 PUSH1 0x1 SWAP5 LT PUSH2 0x264 JUMPI JUMPDEST POP POP DUP2 SHL ADD SWAP1 SSTORE PUSH2 0x1D4 JUMP JUMPDEST DUP11 ADD MLOAD PUSH1 0x0 NOT PUSH1 0xF8 DUP5 PUSH1 0x3 SHL AND SHR NOT AND SWAP1 SSTORE DUP10 DUP1 PUSH2 0x258 JUMP JUMPDEST SWAP2 SWAP3 PUSH1 0x20 PUSH1 0x1 DUP2 SWAP3 DUP7 DUP13 ADD MLOAD DUP2 SSTORE ADD SWAP5 ADD SWAP3 ADD PUSH2 0x219 JUMP JUMPDEST DUP3 PUSH1 0x0 MSTORE PUSH1 0x20 PUSH1 0x0 KECCAK256 PUSH1 0x1F DUP4 ADD PUSH1 0x5 SHR DUP2 ADD SWAP2 PUSH1 0x20 DUP5 LT PUSH2 0x2D3 JUMPI JUMPDEST PUSH1 0x1F ADD PUSH1 0x5 SHR ADD SWAP1 JUMPDEST DUP2 DUP2 LT PUSH2 0x2C7 JUMPI POP PUSH2 0x17D JUMP JUMPDEST PUSH1 0x0 DUP2 SSTORE PUSH1 0x1 ADD PUSH2 0x2BA JUMP JUMPDEST SWAP1 SWAP2 POP DUP2 SWAP1 PUSH2 0x2B1 JUMP JUMPDEST PUSH4 0x4E487B71 PUSH1 0xE0 SHL PUSH1 0x0 MSTORE PUSH1 0x41 PUSH1 0x4 MSTORE PUSH1 0x24 PUSH1 0x0 REVERT JUMPDEST SWAP1 PUSH1 0x1F DUP1 NOT SWAP2 ADD AND DUP2 ADD SWAP1 DUP2 LT PUSH8 0xFFFFFFFFFFFFFFFF DUP3 GT OR PUSH2 0x2DD JUMPI PUSH1 0x40 MSTORE JUMP JUMPDEST DUP2 PUSH1 0x1F DUP3 ADD SLT ISZERO PUSH2 0xB6 JUMPI DUP1 CALLDATALOAD SWAP1 PUSH8 0xFFFFFFFFFFFFFFFF DUP3 GT PUSH2 0x2DD JUMPI PUSH1 0x40 MLOAD SWAP3 PUSH2 0x34A PUSH1 0x1F DUP5 ADD PUSH1 0x1F NOT AND PUSH1 0x20 ADD DUP6 PUSH2 0x2F3 JUMP JUMPDEST DUP3 DUP5 MSTORE PUSH1 0x20 DUP4 DUP4 ADD ADD GT PUSH2 0xB6 JUMPI DUP2 PUSH1 0x0 SWAP3 PUSH1 0x20 DUP1 SWAP4 ADD DUP4 DUP7 ADD CALLDATACOPY DUP4 ADD ADD MSTORE SWAP1 JUMP JUMPDEST PUSH1 0x0 JUMPDEST DUP4 DUP2 LT PUSH2 0x37F JUMPI POP POP PUSH1 0x0 SWAP2 ADD MSTORE JUMP JUMPDEST DUP2 DUP2 ADD MLOAD DUP4 DUP3 ADD MSTORE PUSH1 0x20 ADD PUSH2 0x36F JUMP JUMPDEST SWAP1 PUSH1 0x1 DUP3 DUP2 SHR SWAP3 AND DUP1 ISZERO PUSH2 0x3BF JUMPI JUMPDEST PUSH1 0x20 DUP4 LT EQ PUSH2 0x3A9 JUMPI JUMP JUMPDEST PUSH4 0x4E487B71 PUSH1 0xE0 SHL PUSH1 0x0 MSTORE PUSH1 0x22 PUSH1 0x4 MSTORE PUSH1 0x24 PUSH1 0x0 REVERT JUMPDEST SWAP2 PUSH1 0x7F AND SWAP2 PUSH2 0x39E JUMP JUMPDEST SWAP1 PUSH1 0x40 MLOAD SWAP2 DUP3 PUSH1 0x0 DUP3 SLOAD SWAP3 PUSH2 0x3DD DUP5 PUSH2 0x38F JUMP JUMPDEST DUP1 DUP5 MSTORE SWAP4 PUSH1 0x1 DUP2 AND SWAP1 DUP2 ISZERO PUSH2 0x44B JUMPI POP PUSH1 0x1 EQ PUSH2 0x404 JUMPI JUMPDEST POP PUSH2 0x402 SWAP3 POP SUB DUP4 PUSH2 0x2F3 JUMP JUMPDEST JUMP JUMPDEST SWAP1 POP PUSH1 0x0 SWAP3 SWAP2 SWAP3 MSTORE PUSH1 0x20 PUSH1 0x0 KECCAK256 SWAP1 PUSH1 0x0 SWAP2 JUMPDEST DUP2 DUP4 LT PUSH2 0x42F JUMPI POP POP SWAP1 PUSH1 0x20 PUSH2 0x402 SWAP3 DUP3 ADD ADD CODESIZE PUSH2 0x3F5 JUMP JUMPDEST PUSH1 0x20 SWAP2 SWAP4 POP DUP1 PUSH1 0x1 SWAP2 SLOAD DUP4 DUP6 DUP10 ADD ADD MSTORE ADD SWAP2 ADD SWAP1 SWAP2 DUP5 SWAP3 PUSH2 0x416 JUMP JUMPDEST SWAP1 POP PUSH1 0x20 SWAP3 POP PUSH2 0x402 SWAP5 SWAP2 POP PUSH1 0xFF NOT AND DUP3 DUP5 ADD MSTORE ISZERO ISZERO PUSH1 0x5 SHL DUP3 ADD ADD CODESIZE PUSH2 0x3F5 JUMP JUMPDEST PUSH1 0x40 SWAP2 PUSH1 0x20 DUP3 MSTORE PUSH2 0x48D DUP2 MLOAD DUP1 SWAP3 DUP2 PUSH1 0x20 DUP7 ADD MSTORE PUSH1 0x20 DUP7 DUP7 ADD SWAP2 ADD PUSH2 0x36C JUMP JUMPDEST PUSH1 0x1F ADD PUSH1 0x1F NOT AND ADD ADD SWAP1 JUMP INVALID LOG2 PUSH5 0x6970667358 0x22 SLT KECCAK256 MSTORE8 ADD PUSH28 0x8CE3915F75A82B0580C4997823094265B160879942B2B9AFC89262EE SWAP7 PUSH5 0x736F6C6343 STOP ADDMOD SHR STOP CALLER "},"methodIdentifiers":{"getDID(string)":"e0783898","owner()":"8da5cb5b","registerDID(string,string)":"7e5c39e9","voterDIDs(string)":"ce4d470e"}}}}}