{"contracts/ElectionResults.sol":{"ElectionResults":{"abi":[{"inputs":[],"stateMutability":"nonpayable","type":"constructor"},{"anonymous":false,"inputs":[{"indexed":false,"internalType":"string","name":"pollingStationId","type":"string"},{"indexed":false,"internalType":"string","name":"electionId","type":"string"},{"indexed":false,"internalType":"uint256","name":"timestamp","type":"uint256"}],"name":"ResultFinalized","type":"event"},{"anonymous":false,"inputs":[{"indexed":false,"internalType":"string","name":"pollingStationId","type":"string"},{"indexed":false,"internalType":"string","name":"role","type":"string"},{"indexed":false,"internalType":"address","name":"signer","type":"address"},{"indexed":false,"internalType":"uint256","name":"timestamp","type":"uint256"}],"name":"ResultSigned","type":"event"},{"anonymous":false,"inputs":[{"indexed":false,"internalType":"string","name":"pollingStationId","type":"string"},{"indexed":false,"internalType":"string","name":"electionId","type":"string"},{"indexed":false,"internalType":"uint256","name":"totalVotes","type":"uint256"},{"indexed":false,"internalType":"uint256","name":"timestamp","type":"uint256"}],"name":"ResultSubmitted","type":"event"},{"inputs":[{"internalType":"address","name":"person","type":"address"}],"name":"deactivateKeyPerson","outputs":[],"stateMutability":"nonpayable","type":"function"},{"inputs":[{"internalType":"string","name":"","type":"string"}],"name":"electionResults","outputs":[{"internalType":"string","name":"pollingStationId","type":"string"},{"internalType":"string","name":"electionId","type":"string"},{"internalType":"string","name":"resultHash","type":"string"},{"internalType":"string","name":"resultDataUrl","type":"string"},{"internalType":"uint256","name":"totalVotes","type":"uint256"},{"internalType":"bool","name":"presidingOfficerSigned","type":"bool"},{"internalType":"address","name":"presidingOfficer","type":"address"},{"internalType":"bool","name":"partyAgentSigned","type":"bool"},{"internalType":"address","name":"partyAgent","type":"address"},{"internalType":"string","name":"partyAgentParty","type":"string"},{"internalType":"bool","name":"observerSigned","type":"bool"},{"internalType":"address","name":"observer","type":"address"},{"internalType":"string","name":"observerOrganization","type":"string"},{"internalType":"uint256","name":"timestamp","type":"uint256"},{"internalType":"bool","name":"finalized","type":"bool"}],"stateMutability":"view","type":"function"},{"inputs":[{"internalType":"string","name":"pollingStationId","type":"string"},{"internalType":"string","name":"candidateId","type":"string"}],"name":"getCandidateVotes","outputs":[{"internalType":"uint256","name":"","type":"uint256"}],"stateMutability":"view","type":"function"},{"inputs":[{"internalType":"string","name":"pollingStationId","type":"string"}],"name":"getCandidates","outputs":[{"internalType":"string[]","name":"","type":"string[]"}],"stateMutability":"view","type":"function"},{"inputs":[{"internalType":"string","name":"pollingStationId","type":"string"}],"name":"getElectionResultDetails","outputs":[{"internalType":"string","name":"electionId","type":"string"},{"internalType":"string","name":"resultHash","type":"string"},{"internalType":"string","name":"resultUrl","type":"string"},{"internalType":"uint256","name":"totalVotes","type":"uint256"},{"internalType":"uint256","name":"timestamp","type":"uint256"},{"internalType":"bool","name":"finalized","type":"bool"}],"stateMutability":"view","type":"function"},{"inputs":[],"name":"getPollingStationCount","outputs":[{"internalType":"uint256","name":"","type":"uint256"}],"stateMutability":"view","type":"function"},{"inputs":[{"internalType":"string","name":"pollingStationId","type":"string"}],"name":"getSignatureStatus","outputs":[{"internalType":"bool","name":"presOfficerSigned","type":"bool"},{"internalType":"bool","name":"partyAgentSigned","type":"bool"},{"internalType":"bool","name":"observerSigned","type":"bool"},{"internalType":"bool","name":"isFinalized","type":"bool"}],"stateMutability":"view","type":"function"},{"inputs":[{"internalType":"string","name":"pollingStationId","type":"string"}],"name":"getSignerDetails","outputs":[{"internalType":"address","name":"presOfficer","type":"address"},{"internalType":"address","name":"partyAgent","type":"address"},{"internalType":"string","name":"partyName","type":"string"},{"internalType":"address","name":"observer","type":"address"},{"internalType":"string","name":"orgName","type":"string"}],"stateMutability":"view","type":"function"},{"inputs":[{"internalType":"address","name":"","type":"address"}],"name":"keyPersons","outputs":[{"internalType":"string","name":"nationalId","type":"string"},{"internalType":"string","name":"role","type":"string"},{"internalType":"string","name":"pollingStation","type":"string"},{"internalType":"string","name":"party","type":"string"},{"internalType":"string","name":"organization","type":"string"},{"internalType":"bool","name":"isActive","type":"bool"}],"stateMutability":"view","type":"function"},{"inputs":[],"name":"owner","outputs":[{"internalType":"address","name":"","type":"address"}],"stateMutability":"view","type":"function"},{"inputs":[{"internalType":"uint256","name":"","type":"uint256"}],"name":"pollingStations","outputs":[{"internalType":"string","name":"","type":"string"}],"stateMutability":"view","type":"function"},{"inputs":[{"internalType":"address","name":"person","type":"address"},{"internalType":"string","name":"nationalId","type":"string"},{"internalType":"string","name":"role","type":"string"},{"internalType":"string","name":"pollingStation","type":"string"},{"internalType":"string","name":"party","type":"string"},{"internalType":"string","name":"organization","type":"string"}],"name":"registerKeyPerson","outputs":[],"stateMutability":"nonpayable","type":"function"},{"inputs":[{"internalType":"string","name":"pollingStationId","type":"string"}],"name":"signAsObserver","outputs":[],"stateMutability":"nonpayable","type":"function"},{"inputs":[{"internalType":"string","name":"pollingStationId","type":"string"}],"name":"signAsPartyAgent","outputs":[],"stateMutability":"nonpayable","type":"function"},{"inputs":[{"internalType":"string","name":"pollingStationId","type":"string"},{"internalType":"string","name":"electionId","type":"string"},{"internalType":"string","name":"resultHash","type":"string"},{"internalType":"string","name":"resultDataUrl","type":"string"},{"internalType":"uint256","name":"totalVotes","type":"uint256"},{"internalType":"string[]","name":"candidateIds","type":"string[]"},{"internalType":"uint256[]","name":"votes","type":"uint256[]"}],"name":"submitResults","outputs":[],"stateMutability":"nonpayable","type":"function"}],"evm":{"bytecode":{"linkReferences":{},"object":"60808060405234602757600080546001600160a01b03191633179055611e1d908161002d8239f35b600080fdfe6080604052600436101561001257600080fd5b6000803560e01c806326fa69881461139857806334408ee9146112375780633b468ad31461115c57806345534763146110655780634f84d99814610fa45780635da87c7c1461083957806381929bac1461068e5780638da5cb5b146106675780638e0377c0146105e75780639140345014610517578063a769bfaa14610456578063b496802714610438578063b7ff50fc146103ad578063fe2442d7146103245763ff0bd9d7146100c257600080fd5b34610321576020366003190112610321576004356001600160401b03811161031f576101137ff8199f38537119533219c04d4f21e0645cfa7cdd3304001cc13f10c0f62c5b1e91369060040161157c565b60406101be81516101248382611545565b6009815260208101684f627365727665727360b81b8152338752600360205261015560ff6005868a200154166118e6565b338752600360205260018488200184516101858161017760208201809561194e565b03601f198101835282611545565b519020916101b56020865180936101a4838301968792519283916116b0565b81010301601f198101835282611545565b519020146119bc565b61027b602082516101f96101f260028751938581818b01966101e181838a6116b0565b8101600181520301902001546115d2565b1515611a2e565b61022460ff600d865185818a5161021181838a6116b0565b8101600181520301902001541615611aa0565b3387526003825261026b600285892001855161024781610177878201809561194e565b51902085518481019061026286828b516101a481878b6116b0565b51902014611b03565b83518093819287519283916116b0565b60019082018181529190910391909101909120600a810180546001600160a81b0319163360081b610100600160a81b03161790921790915533855260036020526102cd600483872001600b8301611b75565b600c429101556102dc82611c60565b6102f08151926080845260808401906116d3565b684f627365727665727360b81b602084830392838287015260098152015233828401524260608401520190a180f35b505b80fd5b50346103215760203660031901126103215760043560025481101561031f5760025481101561039957600290915261039590610381907f405787fa12a823e0f2b7631cc41b3ba8828b3321ca811111fa75cd3aa3bb5ace0161160c565b6040519182916020835260208301906116d3565b0390f35b634e487b7160e01b82526032600452602482fd5b5034610321576040366003190112610321576004356001600160401b03811161031f576103de90369060040161157c565b90602435906001600160401b03821161032157602061042f84600561041e8461040a3660048a0161157c565b9381604051938285809451938492016116b0565b81016001815203019020019061170f565b54604051908152f35b50346103215780600319360112610321576020600254604051908152f35b50346103215760203660031901126103215761047061152a565b61048460018060a01b038354163314611763565b6001600160a01b03168082526003602052604082206005015460ff16156104be578152600360205260408120600501805460ff1916905580f35b60405162461bcd60e51b815260206004820152602b60248201527f456c656374696f6e526573756c74733a20706572736f6e20697320616c72656160448201526a647920696e61637469766560a81b6064820152608490fd5b503461032157602036600319011261032157600435906001600160401b03821161032157610560602061054d366004860161157c565b81604051938285809451938492016116b0565b6001908201908152030190206007810154600880830154600a8401546001600160a01b039182169493831c821693610395939190911c909116906105d46105b5600b6105ae6009850161160c565b930161160c565b916040519687968752602087015260a0604087015260a08601906116d3565b91606085015283820360808501526116d3565b503461032157602036600319011261032157600435906001600160401b03821161032157608061061f602061054d366004870161157c565b8101600181520301902060078101549060ff600d81600a84015416920154169060ff604051938181161515855260a81c16151560208401521515604083015215156060820152f35b5034610321578060031936011261032157546040516001600160a01b039091168152602090f35b503461032157602036600319011261032157600435906001600160401b03821161032157506106c190369060040161157c565b60405181818093516020819301916106d8926116b0565b8101600181520360200190206106ed8161160c565b6106f96001830161160c565b916107066002820161160c565b6107126003830161160c565b60048301546007840154600885015490916001600160a01b039091169061073b6009870161160c565b91600a87015493600b880161074f9061160c565b95600c89015498600d015460ff16976040519b8c9b6101e08d526101e08d01610777916116d3565b8c810360208e0152610788916116d3565b8b810360408d0152610799916116d3565b8a810360608c01526107aa916116d3565b9260808a015260ff8116151560a08a0152600160a01b600190038160081c1660c08a015260a81c60ff16151560e08901526101008801528681036101208801526107f3916116d3565b60ff8216151561014087015260089190911c6001600160a01b0316610160860152848103610180860152610826916116d3565b916101a084015215156101c08301520390f35b50346103215760e0366003190112610321576004356001600160401b03811161031f5761086a90369060040161157c565b6024356001600160401b038111610f655761088990369060040161157c565b906044356001600160401b038111610fa0576108a990369060040161157c565b6064356001600160401b038111610f9c576108c890369060040161157c565b936084359060a435936001600160401b03851161031f573660238601121561031f578460040135946108f9866116f8565b956109076040519788611545565b80875260051b810160240160208701368211610f9c5760248301905b828210610f69575050505060c435936001600160401b038511610f655736602386011215610f655784600401359461095a866116f8565b956109686040519788611545565b8087526024602088019160051b83010191368311610f6157602401905b828210610f5157505050604090610a2082516109a18482611545565b601681526020810175507265736964696e67204f6666696365722028504f2960501b815233875260036020526109df60ff6005878a200154166118e6565b33875260036020526001858820018551610a018161017760208201809561194e565b519020916101b56020875180936101a4838301968792519283916116b0565b8651865103610ed95733845260036020526002828520018251610a4b8161017760208201809561194e565b519020610a7083519160208301865193610262602082818b01976101a481878b6116b0565b610a876002845160208188516101e18183896116b0565b610ceb57600254600160401b811015610cd757806001610aac92016002556002611735565b610cc357610b1b92610b098b610ae7602060019f96610ace8b610b129861181c565b92509250929c9d505b8651809381928a519283916116b0565b8101600181520301902099610afc868c61181c565b610b098c60018d0161181c565b60028b0161181c565b6003890161181c565b8360048801558297600688019460058901995b8851811015610bc157610b41818a611c4c565b518754600160401b811015610bad57806001610b6092018a5589611735565b610b9957610b928d610b8c85610b858f95978f610b80829960019b61181c565b611c4c565b5194611c4c565b5161170f565b5501610b2e565b634e487b7160e01b88526004889052602488fd5b634e487b7160e01b88526041600452602488fd5b506007890180546001600160a81b0319163360081b610100600160a81b03161760011790557ff8199f38537119533219c04d4f21e0645cfa7cdd3304001cc13f10c0f62c5b1e9392917f864a7b3f39f280adcf854cf2647567b1db19a6e614ab332c04472700ef6f240f91610c6591908b600c42910155610c4186611c60565b845192839260808452610c5760808501896116d3565b9084820360208601526116d3565b90858301524260608301520390a1610c878151926080845260808401906116d3565b75507265736964696e67204f6666696365722028504f2960501b602084830392838287015260168152015233828401524260608401520190a180f35b634e487b7160e01b86526004869052602486fd5b634e487b7160e01b86526041600452602486fd5b979293959096919460ff600d610d0d60208c8a51809381928c519283916116b0565b81016001815203019020015416610e7c57600199875b6006610d3b60208d8b51809381928d519283916116b0565b810160018152030190200154811015610db7578089610db08a8f948f6020610da0918e610d90610d8a6005966006895187818751610d7a81838c6116b0565b8101600181520301902001611735565b5061160c565b95519384928392519283916116b0565b810189815203019020019061170f565b5501610d23565b509196949380999891969398600685516020818951610dd78183886116b0565b810160018152030190200180549088815581610e08575b5050610b129150610b1b93929a9b506020610ae791610ad7565b885260208820908101905b81811015610dee578d91929350610e2a81546115d2565b80610e3b575b5001908b9291610e13565b601f81118314610e5057508881555b38610e30565b818a5260208a20610e6b91601f0160051c81019084016117c0565b808952886020812081835555610e4a565b855162461bcd60e51b815260206004820152603060248201527f456c656374696f6e526573756c74733a2063616e6e6f7420757064617465206660448201526f696e616c697a656420726573756c747360801b6064820152608490fd5b815162461bcd60e51b815260206004820152604560248201527f456c656374696f6e526573756c74733a2063616e64696461746520494473206160448201527f6e6420766f74657320617272617973206d75737420686176652073616d65206c6064820152640cadccee8d60db1b608482015260a490fd5b8135815260209182019101610985565b8580fd5b8280fd5b81356001600160401b038111610f9857602091610f8d83926024369189010161157c565b815201910190610923565b8680fd5b8480fd5b8380fd5b503461032157602036600319011261032157600435906001600160401b03821161032157611033610fdd602061054d366004870161157c565b810160018152030190206004810154600c82015460ff600d840154169061104f6110096001860161160c565b9461104161101e60036105ae6002850161160c565b9160405198899860c08a5260c08a01906116d3565b9088820360208a01526116d3565b9086820360408801526116d3565b9260608501526080840152151560a08301520390f35b5034610321576020366003190112610321576004356001600160401b03811161031f5761109d602061054d600693369060040161157c565b810160018152030190200180546110b3816116f8565b906110c16040519283611545565b80825260208201809385526020852085915b83831061113f57868587604051928392602084019060208552518091526040840160408260051b8601019392905b82821061111057505050500390f35b9193600191939550602061112f8192603f198a820301865288516116d3565b9601920192018594939192611101565b60016020819261114e8561160c565b8152019201920191906110d3565b5034610321576020366003190112610321576111f3906040906001600160a01b0361118561152a565b1681526003602052206111978161160c565b9061122b6111a76001830161160c565b9161121d6111b76002830161160c565b61120f6111c66003850161160c565b9161120160ff60056111da6004890161160c565b97015416976040519a8b9a60c08c5260c08c01906116d3565b908a820360208c01526116d3565b9088820360408a01526116d3565b9086820360608801526116d3565b9084820360808601526116d3565b90151560a08301520390f35b5034610321576020366003190112610321576004356001600160401b03811161031f576112897ff8199f38537119533219c04d4f21e0645cfa7cdd3304001cc13f10c0f62c5b1e91369060040161157c565b60406112ce815161129a8382611545565b600c8152602081016b5061727479204167656e747360a01b8152338752600360205261015560ff6005868a200154166118e6565b6112f1602082516101f96101f260028751938581818b01966101e181838a6116b0565b60019082019081520301902060078101805460ff60a81b1916600160a81b1790556008810180546001600160a01b03191633908117909155855260036020819052828620611343910160098301611b75565b600c4291015561135282611c60565b6113668151926080845260808401906116d3565b6b5061727479204167656e747360a01b6020848303928382870152600c8152015233828401524260608401520190a180f35b50346103215760c0366003190112610321576113b261152a565b6024356001600160401b038111610f65576113d190369060040161157c565b6044356001600160401b038111610fa0576113f090369060040161157c565b6064356001600160401b038111610f9c5761140f90369060040161157c565b6084356001600160401b038111610f615761142e90369060040161157c565b9060a4356001600160401b038111610f985761144e90369060040161157c565b9261146360018060a01b038854163314611763565b6040519460c086018681106001600160401b038211176115165760059695936114e46114f89461150297946114ee9460405289526020890190815260408901928352606089019485526080890196875260a089019a60018c5260018060a01b03168c5260036020526114da60408d2099518a61181c565b516001890161181c565b516002870161181c565b516003850161181c565b516004830161181c565b019051151560ff8019835416911617905580f35b634e487b7160e01b89526041600452602489fd5b600435906001600160a01b038216820361154057565b600080fd5b90601f801991011681019081106001600160401b0382111761156657604052565b634e487b7160e01b600052604160045260246000fd5b81601f82011215611540578035906001600160401b03821161156657604051926115b0601f8401601f191660200185611545565b8284526020838301011161154057816000926020809301838601378301015290565b90600182811c92168015611602575b60208310146115ec57565b634e487b7160e01b600052602260045260246000fd5b91607f16916115e1565b9060405191826000825492611620846115d2565b808452936001811690811561168e5750600114611647575b5061164592500383611545565b565b90506000929192526020600020906000915b8183106116725750509060206116459282010138611638565b6020919350806001915483858901015201910190918492611659565b90506020925061164594915060ff191682840152151560051b82010138611638565b60005b8381106116c35750506000910152565b81810151838201526020016116b3565b906020916116ec815180928185528580860191016116b0565b601f01601f1916010190565b6001600160401b0381116115665760051b60200190565b6020906117299282604051948386809551938492016116b0565b82019081520301902090565b805482101561174d5760005260206000200190600090565b634e487b7160e01b600052603260045260246000fd5b1561176a57565b60405162461bcd60e51b815260206004820152602860248201527f456c656374696f6e526573756c74733a2063616c6c6572206973206e6f74207460448201526734329037bbb732b960c11b6064820152608490fd5b8181106117cb575050565b600081556001016117c0565b9190601f81116117e657505050565b611645926000526020600020906020601f840160051c83019310611812575b601f0160051c01906117c0565b9091508190611805565b91909182516001600160401b038111611566576118438161183d84546115d2565b846117d7565b6020601f8211600114611884578190611875939495600092611879575b50508160011b916000199060031b1c19161790565b9055565b015190503880611860565b601f1982169083600052806000209160005b8181106118ce575095836001959697106118b5575b505050811b019055565b015160001960f88460031b161c191690553880806118ab565b9192602060018192868b015181550194019201611896565b156118ed57565b60405162461bcd60e51b815260206004820152603360248201527f456c656374696f6e526573756c74733a2063616c6c6572206973206e6f742061604482015272371030b1ba34bb329035b2bc903832b939b7b760691b6064820152608490fd5b6000929181549161195e836115d2565b92600181169081156119a9575060011461197757505050565b909192935060005260206000206000905b8382106119955750500190565b600181602092548486015201910190611988565b60ff191683525050811515909102019150565b156119c357565b60405162461bcd60e51b815260206004820152603760248201527f456c656374696f6e526573756c74733a2063616c6c657220646f6573206e6f7460448201527f20686176652074686520726571756972656420726f6c650000000000000000006064820152608490fd5b15611a3557565b60405162461bcd60e51b815260206004820152603a60248201527f456c656374696f6e526573756c74733a206e6f20726573756c747320666f756e60448201527f6420666f72207468697320706f6c6c696e672073746174696f6e0000000000006064820152608490fd5b15611aa757565b60405162461bcd60e51b815260206004820152602e60248201527f456c656374696f6e526573756c74733a20726573756c74732061726520616c7260448201526d1958591e48199a5b985b1a5e995960921b6064820152608490fd5b15611b0a57565b60405162461bcd60e51b815260206004820152603f60248201527f456c656374696f6e526573756c74733a2063616c6c6572206973206e6f74206160448201527f737369676e656420746f207468697320706f6c6c696e672073746174696f6e006064820152608490fd5b919091828114611c4757611b8983546115d2565b6001600160401b03811161156657611ba58161183d84546115d2565b600093601f8211600114611be2576118759293948291600092611bd75750508160011b916000199060031b1c19161790565b015490503880611860565b845260208085208386529085209094601f198316815b818110611c2f57509583600195969710611c1657505050811b019055565b015460001960f88460031b161c191690553880806118ab565b9192600180602092868b015481550194019201611bf8565b509050565b805182101561174d5760209160051b010190565b6040516020818351611c7581838588016116b0565b81016001815203019020600781015460ff81169081611dd9575b5080611dcb575b611c9e575050565b80600d600192018260ff1982541617905501611cc5604051926060845260608401906116d3565b908282036020840152600091815491611cdd836115d2565b8083529260018116908115611d875750600114611d27575b50505090807f2a8969a8b1cc2562764eee7e8f40f4a449c1dcdb5febff06f45c736c3e07d6f2924260408301520390a1565b909192506000526020600020916000925b818410611d6d57505001602001817f2a8969a8b1cc2562764eee7e8f40f4a449c1dcdb5febff06f45c736c3e07d6f238611cf5565b600181602092959395548385870101520191019290611d38565b86955060209392507f2a8969a8b1cc2562764eee7e8f40f4a449c1dcdb5febff06f45c736c3e07d6f29694915060ff191683830152151560051b0101919238611cf5565b5060ff600a82015416611c96565b60ff915060a81c1638611c8f56fea2646970667358221220013645b7a4ae86dc7979fe29a50515f1cc8962831c901cbfd87e66d70f21dc3464736f6c634300081c0033","opcodes":"PUSH1 0x80 DUP1 PUSH1 0x40 MSTORE CALLVALUE PUSH1 0x27 JUMPI PUSH1 0x0 DUP1 SLOAD PUSH1 0x1 PUSH1 0x1 PUSH1 0xA0 SHL SUB NOT AND CALLER OR SWAP1 SSTORE PUSH2 0x1E1D SWAP1 DUP2 PUSH2 0x2D DUP3 CODECOPY RETURN JUMPDEST PUSH1 0x0 DUP1 REVERT INVALID PUSH1 0x80 PUSH1 0x40 MSTORE PUSH1 0x4 CALLDATASIZE LT ISZERO PUSH2 0x12 JUMPI PUSH1 0x0 DUP1 REVERT JUMPDEST PUSH1 0x0 DUP1 CALLDATALOAD PUSH1 0xE0 SHR DUP1 PUSH4 0x26FA6988 EQ PUSH2 0x1398 JUMPI DUP1 PUSH4 0x34408EE9 EQ PUSH2 0x1237 JUMPI DUP1 PUSH4 0x3B468AD3 EQ PUSH2 0x115C JUMPI DUP1 PUSH4 0x45534763 EQ PUSH2 0x1065 JUMPI DUP1 PUSH4 0x4F84D998 EQ PUSH2 0xFA4 JUMPI DUP1 PUSH4 0x5DA87C7C EQ PUSH2 0x839 JUMPI DUP1 PUSH4 0x81929BAC EQ PUSH2 0x68E JUMPI DUP1 PUSH4 0x8DA5CB5B EQ PUSH2 0x667 JUMPI DUP1 PUSH4 0x8E0377C0 EQ PUSH2 0x5E7 JUMPI DUP1 PUSH4 0x91403450 EQ PUSH2 0x517 JUMPI DUP1 PUSH4 0xA769BFAA EQ PUSH2 0x456 JUMPI DUP1 PUSH4 0xB4968027 EQ PUSH2 0x438 JUMPI DUP1 PUSH4 0xB7FF50FC EQ PUSH2 0x3AD JUMPI DUP1 PUSH4 0xFE2442D7 EQ PUSH2 0x324 JUMPI PUSH4 0xFF0BD9D7 EQ PUSH2 0xC2 JUMPI PUSH1 0x0 DUP1 REVERT JUMPDEST CALLVALUE PUSH2 0x321 JUMPI PUSH1 0x20 CALLDATASIZE PUSH1 0x3 NOT ADD SLT PUSH2 0x321 JUMPI PUSH1 0x4 CALLDATALOAD PUSH1 0x1 PUSH1 0x1 PUSH1 0x40 SHL SUB DUP2 GT PUSH2 0x31F JUMPI PUSH2 0x113 PUSH32 0xF8199F38537119533219C04D4F21E0645CFA7CDD3304001CC13F10C0F62C5B1E SWAP2 CALLDATASIZE SWAP1 PUSH1 0x4 ADD PUSH2 0x157C JUMP JUMPDEST PUSH1 0x40 PUSH2 0x1BE DUP2 MLOAD PUSH2 0x124 DUP4 DUP3 PUSH2 0x1545 JUMP JUMPDEST PUSH1 0x9 DUP2 MSTORE PUSH1 0x20 DUP2 ADD PUSH9 0x4F6273657276657273 PUSH1 0xB8 SHL DUP2 MSTORE CALLER DUP8 MSTORE PUSH1 0x3 PUSH1 0x20 MSTORE PUSH2 0x155 PUSH1 0xFF PUSH1 0x5 DUP7 DUP11 KECCAK256 ADD SLOAD AND PUSH2 0x18E6 JUMP JUMPDEST CALLER DUP8 MSTORE PUSH1 0x3 PUSH1 0x20 MSTORE PUSH1 0x1 DUP5 DUP9 KECCAK256 ADD DUP5 MLOAD PUSH2 0x185 DUP2 PUSH2 0x177 PUSH1 0x20 DUP3 ADD DUP1 SWAP6 PUSH2 0x194E JUMP JUMPDEST SUB PUSH1 0x1F NOT DUP2 ADD DUP4 MSTORE DUP3 PUSH2 0x1545 JUMP JUMPDEST MLOAD SWAP1 KECCAK256 SWAP2 PUSH2 0x1B5 PUSH1 0x20 DUP7 MLOAD DUP1 SWAP4 PUSH2 0x1A4 DUP4 DUP4 ADD SWAP7 DUP8 SWAP3 MLOAD SWAP3 DUP4 SWAP2 PUSH2 0x16B0 JUMP JUMPDEST DUP2 ADD SUB ADD PUSH1 0x1F NOT DUP2 ADD DUP4 MSTORE DUP3 PUSH2 0x1545 JUMP JUMPDEST MLOAD SWAP1 KECCAK256 EQ PUSH2 0x19BC JUMP JUMPDEST PUSH2 0x27B PUSH1 0x20 DUP3 MLOAD PUSH2 0x1F9 PUSH2 0x1F2 PUSH1 0x2 DUP8 MLOAD SWAP4 DUP6 DUP2 DUP2 DUP12 ADD SWAP7 PUSH2 0x1E1 DUP2 DUP4 DUP11 PUSH2 0x16B0 JUMP JUMPDEST DUP2 ADD PUSH1 0x1 DUP2 MSTORE SUB ADD SWAP1 KECCAK256 ADD SLOAD PUSH2 0x15D2 JUMP JUMPDEST ISZERO ISZERO PUSH2 0x1A2E JUMP JUMPDEST PUSH2 0x224 PUSH1 0xFF PUSH1 0xD DUP7 MLOAD DUP6 DUP2 DUP11 MLOAD PUSH2 0x211 DUP2 DUP4 DUP11 PUSH2 0x16B0 JUMP JUMPDEST DUP2 ADD PUSH1 0x1 DUP2 MSTORE SUB ADD SWAP1 KECCAK256 ADD SLOAD AND ISZERO PUSH2 0x1AA0 JUMP JUMPDEST CALLER DUP8 MSTORE PUSH1 0x3 DUP3 MSTORE PUSH2 0x26B PUSH1 0x2 DUP6 DUP10 KECCAK256 ADD DUP6 MLOAD PUSH2 0x247 DUP2 PUSH2 0x177 DUP8 DUP3 ADD DUP1 SWAP6 PUSH2 0x194E JUMP JUMPDEST MLOAD SWAP1 KECCAK256 DUP6 MLOAD DUP5 DUP2 ADD SWAP1 PUSH2 0x262 DUP7 DUP3 DUP12 MLOAD PUSH2 0x1A4 DUP2 DUP8 DUP12 PUSH2 0x16B0 JUMP JUMPDEST MLOAD SWAP1 KECCAK256 EQ PUSH2 0x1B03 JUMP JUMPDEST DUP4 MLOAD DUP1 SWAP4 DUP2 SWAP3 DUP8 MLOAD SWAP3 DUP4 SWAP2 PUSH2 0x16B0 JUMP JUMPDEST PUSH1 0x1 SWAP1 DUP3 ADD DUP2 DUP2 MSTORE SWAP2 SWAP1 SWAP2 SUB SWAP2 SWAP1 SWAP2 ADD SWAP1 SWAP2 KECCAK256 PUSH1 0xA DUP2 ADD DUP1 SLOAD PUSH1 0x1 PUSH1 0x1 PUSH1 0xA8 SHL SUB NOT AND CALLER PUSH1 0x8 SHL PUSH2 0x100 PUSH1 0x1 PUSH1 0xA8 SHL SUB AND OR SWAP1 SWAP3 OR SWAP1 SWAP2 SSTORE CALLER DUP6 MSTORE PUSH1 0x3 PUSH1 0x20 MSTORE PUSH2 0x2CD PUSH1 0x4 DUP4 DUP8 KECCAK256 ADD PUSH1 0xB DUP4 ADD PUSH2 0x1B75 JUMP JUMPDEST PUSH1 0xC TIMESTAMP SWAP2 ADD SSTORE PUSH2 0x2DC DUP3 PUSH2 0x1C60 JUMP JUMPDEST PUSH2 0x2F0 DUP2 MLOAD SWAP3 PUSH1 0x80 DUP5 MSTORE PUSH1 0x80 DUP5 ADD SWAP1 PUSH2 0x16D3 JUMP JUMPDEST PUSH9 0x4F6273657276657273 PUSH1 0xB8 SHL PUSH1 0x20 DUP5 DUP4 SUB SWAP3 DUP4 DUP3 DUP8 ADD MSTORE PUSH1 0x9 DUP2 MSTORE ADD MSTORE CALLER DUP3 DUP5 ADD MSTORE TIMESTAMP PUSH1 0x60 DUP5 ADD MSTORE ADD SWAP1 LOG1 DUP1 RETURN JUMPDEST POP JUMPDEST DUP1 REVERT JUMPDEST POP CALLVALUE PUSH2 0x321 JUMPI PUSH1 0x20 CALLDATASIZE PUSH1 0x3 NOT ADD SLT PUSH2 0x321 JUMPI PUSH1 0x4 CALLDATALOAD PUSH1 0x2 SLOAD DUP2 LT ISZERO PUSH2 0x31F JUMPI PUSH1 0x2 SLOAD DUP2 LT ISZERO PUSH2 0x399 JUMPI PUSH1 0x2 SWAP1 SWAP2 MSTORE PUSH2 0x395 SWAP1 PUSH2 0x381 SWAP1 PUSH32 0x405787FA12A823E0F2B7631CC41B3BA8828B3321CA811111FA75CD3AA3BB5ACE ADD PUSH2 0x160C JUMP JUMPDEST PUSH1 0x40 MLOAD SWAP2 DUP3 SWAP2 PUSH1 0x20 DUP4 MSTORE PUSH1 0x20 DUP4 ADD SWAP1 PUSH2 0x16D3 JUMP JUMPDEST SUB SWAP1 RETURN JUMPDEST PUSH4 0x4E487B71 PUSH1 0xE0 SHL DUP3 MSTORE PUSH1 0x32 PUSH1 0x4 MSTORE PUSH1 0x24 DUP3 REVERT JUMPDEST POP CALLVALUE PUSH2 0x321 JUMPI PUSH1 0x40 CALLDATASIZE PUSH1 0x3 NOT ADD SLT PUSH2 0x321 JUMPI PUSH1 0x4 CALLDATALOAD PUSH1 0x1 PUSH1 0x1 PUSH1 0x40 SHL SUB DUP2 GT PUSH2 0x31F JUMPI PUSH2 0x3DE SWAP1 CALLDATASIZE SWAP1 PUSH1 0x4 ADD PUSH2 0x157C JUMP JUMPDEST SWAP1 PUSH1 0x24 CALLDATALOAD SWAP1 PUSH1 0x1 PUSH1 0x1 PUSH1 0x40 SHL SUB DUP3 GT PUSH2 0x321 JUMPI PUSH1 0x20 PUSH2 0x42F DUP5 PUSH1 0x5 PUSH2 0x41E DUP5 PUSH2 0x40A CALLDATASIZE PUSH1 0x4 DUP11 ADD PUSH2 0x157C JUMP JUMPDEST SWAP4 DUP2 PUSH1 0x40 MLOAD SWAP4 DUP3 DUP6 DUP1 SWAP5 MLOAD SWAP4 DUP5 SWAP3 ADD PUSH2 0x16B0 JUMP JUMPDEST DUP2 ADD PUSH1 0x1 DUP2 MSTORE SUB ADD SWAP1 KECCAK256 ADD SWAP1 PUSH2 0x170F JUMP JUMPDEST SLOAD PUSH1 0x40 MLOAD SWAP1 DUP2 MSTORE RETURN JUMPDEST POP CALLVALUE PUSH2 0x321 JUMPI DUP1 PUSH1 0x3 NOT CALLDATASIZE ADD SLT PUSH2 0x321 JUMPI PUSH1 0x20 PUSH1 0x2 SLOAD PUSH1 0x40 MLOAD SWAP1 DUP2 MSTORE RETURN JUMPDEST POP CALLVALUE PUSH2 0x321 JUMPI PUSH1 0x20 CALLDATASIZE PUSH1 0x3 NOT ADD SLT PUSH2 0x321 JUMPI PUSH2 0x470 PUSH2 0x152A JUMP JUMPDEST PUSH2 0x484 PUSH1 0x1 DUP1 PUSH1 0xA0 SHL SUB DUP4 SLOAD AND CALLER EQ PUSH2 0x1763 JUMP JUMPDEST PUSH1 0x1 PUSH1 0x1 PUSH1 0xA0 SHL SUB AND DUP1 DUP3 MSTORE PUSH1 0x3 PUSH1 0x20 MSTORE PUSH1 0x40 DUP3 KECCAK256 PUSH1 0x5 ADD SLOAD PUSH1 0xFF AND ISZERO PUSH2 0x4BE JUMPI DUP2 MSTORE PUSH1 0x3 PUSH1 0x20 MSTORE PUSH1 0x40 DUP2 KECCAK256 PUSH1 0x5 ADD DUP1 SLOAD PUSH1 0xFF NOT AND SWAP1 SSTORE DUP1 RETURN JUMPDEST PUSH1 0x40 MLOAD PUSH3 0x461BCD PUSH1 0xE5 SHL DUP2 MSTORE PUSH1 0x20 PUSH1 0x4 DUP3 ADD MSTORE PUSH1 0x2B PUSH1 0x24 DUP3 ADD MSTORE PUSH32 0x456C656374696F6E526573756C74733A20706572736F6E20697320616C726561 PUSH1 0x44 DUP3 ADD MSTORE PUSH11 0x647920696E616374697665 PUSH1 0xA8 SHL PUSH1 0x64 DUP3 ADD MSTORE PUSH1 0x84 SWAP1 REVERT JUMPDEST POP CALLVALUE PUSH2 0x321 JUMPI PUSH1 0x20 CALLDATASIZE PUSH1 0x3 NOT ADD SLT PUSH2 0x321 JUMPI PUSH1 0x4 CALLDATALOAD SWAP1 PUSH1 0x1 PUSH1 0x1 PUSH1 0x40 SHL SUB DUP3 GT PUSH2 0x321 JUMPI PUSH2 0x560 PUSH1 0x20 PUSH2 0x54D CALLDATASIZE PUSH1 0x4 DUP7 ADD PUSH2 0x157C JUMP JUMPDEST DUP2 PUSH1 0x40 MLOAD SWAP4 DUP3 DUP6 DUP1 SWAP5 MLOAD SWAP4 DUP5 SWAP3 ADD PUSH2 0x16B0 JUMP JUMPDEST PUSH1 0x1 SWAP1 DUP3 ADD SWAP1 DUP2 MSTORE SUB ADD SWAP1 KECCAK256 PUSH1 0x7 DUP2 ADD SLOAD PUSH1 0x8 DUP1 DUP4 ADD SLOAD PUSH1 0xA DUP5 ADD SLOAD PUSH1 0x1 PUSH1 0x1 PUSH1 0xA0 SHL SUB SWAP2 DUP3 AND SWAP5 SWAP4 DUP4 SHR DUP3 AND SWAP4 PUSH2 0x395 SWAP4 SWAP2 SWAP1 SWAP2 SHR SWAP1 SWAP2 AND SWAP1 PUSH2 0x5D4 PUSH2 0x5B5 PUSH1 0xB PUSH2 0x5AE PUSH1 0x9 DUP6 ADD PUSH2 0x160C JUMP JUMPDEST SWAP4 ADD PUSH2 0x160C JUMP JUMPDEST SWAP2 PUSH1 0x40 MLOAD SWAP7 DUP8 SWAP7 DUP8 MSTORE PUSH1 0x20 DUP8 ADD MSTORE PUSH1 0xA0 PUSH1 0x40 DUP8 ADD MSTORE PUSH1 0xA0 DUP7 ADD SWAP1 PUSH2 0x16D3 JUMP JUMPDEST SWAP2 PUSH1 0x60 DUP6 ADD MSTORE DUP4 DUP3 SUB PUSH1 0x80 DUP6 ADD MSTORE PUSH2 0x16D3 JUMP JUMPDEST POP CALLVALUE PUSH2 0x321 JUMPI PUSH1 0x20 CALLDATASIZE PUSH1 0x3 NOT ADD SLT PUSH2 0x321 JUMPI PUSH1 0x4 CALLDATALOAD SWAP1 PUSH1 0x1 PUSH1 0x1 PUSH1 0x40 SHL SUB DUP3 GT PUSH2 0x321 JUMPI PUSH1 0x80 PUSH2 0x61F PUSH1 0x20 PUSH2 0x54D CALLDATASIZE PUSH1 0x4 DUP8 ADD PUSH2 0x157C JUMP JUMPDEST DUP2 ADD PUSH1 0x1 DUP2 MSTORE SUB ADD SWAP1 KECCAK256 PUSH1 0x7 DUP2 ADD SLOAD SWAP1 PUSH1 0xFF PUSH1 0xD DUP2 PUSH1 0xA DUP5 ADD SLOAD AND SWAP3 ADD SLOAD AND SWAP1 PUSH1 0xFF PUSH1 0x40 MLOAD SWAP4 DUP2 DUP2 AND ISZERO ISZERO DUP6 MSTORE PUSH1 0xA8 SHR AND ISZERO ISZERO PUSH1 0x20 DUP5 ADD MSTORE ISZERO ISZERO PUSH1 0x40 DUP4 ADD MSTORE ISZERO ISZERO PUSH1 0x60 DUP3 ADD MSTORE RETURN JUMPDEST POP CALLVALUE PUSH2 0x321 JUMPI DUP1 PUSH1 0x3 NOT CALLDATASIZE ADD SLT PUSH2 0x321 JUMPI SLOAD PUSH1 0x40 MLOAD PUSH1 0x1 PUSH1 0x1 PUSH1 0xA0 SHL SUB SWAP1 SWAP2 AND DUP2 MSTORE PUSH1 0x20 SWAP1 RETURN JUMPDEST POP CALLVALUE PUSH2 0x321 JUMPI PUSH1 0x20 CALLDATASIZE PUSH1 0x3 NOT ADD SLT PUSH2 0x321 JUMPI PUSH1 0x4 CALLDATALOAD SWAP1 PUSH1 0x1 PUSH1 0x1 PUSH1 0x40 SHL SUB DUP3 GT PUSH2 0x321 JUMPI POP PUSH2 0x6C1 SWAP1 CALLDATASIZE SWAP1 PUSH1 0x4 ADD PUSH2 0x157C JUMP JUMPDEST PUSH1 0x40 MLOAD DUP2 DUP2 DUP1 SWAP4 MLOAD PUSH1 0x20 DUP2 SWAP4 ADD SWAP2 PUSH2 0x6D8 SWAP3 PUSH2 0x16B0 JUMP JUMPDEST DUP2 ADD PUSH1 0x1 DUP2 MSTORE SUB PUSH1 0x20 ADD SWAP1 KECCAK256 PUSH2 0x6ED DUP2 PUSH2 0x160C JUMP JUMPDEST PUSH2 0x6F9 PUSH1 0x1 DUP4 ADD PUSH2 0x160C JUMP JUMPDEST SWAP2 PUSH2 0x706 PUSH1 0x2 DUP3 ADD PUSH2 0x160C JUMP JUMPDEST PUSH2 0x712 PUSH1 0x3 DUP4 ADD PUSH2 0x160C JUMP JUMPDEST PUSH1 0x4 DUP4 ADD SLOAD PUSH1 0x7 DUP5 ADD SLOAD PUSH1 0x8 DUP6 ADD SLOAD SWAP1 SWAP2 PUSH1 0x1 PUSH1 0x1 PUSH1 0xA0 SHL SUB SWAP1 SWAP2 AND SWAP1 PUSH2 0x73B PUSH1 0x9 DUP8 ADD PUSH2 0x160C JUMP JUMPDEST SWAP2 PUSH1 0xA DUP8 ADD SLOAD SWAP4 PUSH1 0xB DUP9 ADD PUSH2 0x74F SWAP1 PUSH2 0x160C JUMP JUMPDEST SWAP6 PUSH1 0xC DUP10 ADD SLOAD SWAP9 PUSH1 0xD ADD SLOAD PUSH1 0xFF AND SWAP8 PUSH1 0x40 MLOAD SWAP12 DUP13 SWAP12 PUSH2 0x1E0 DUP14 MSTORE PUSH2 0x1E0 DUP14 ADD PUSH2 0x777 SWAP2 PUSH2 0x16D3 JUMP JUMPDEST DUP13 DUP2 SUB PUSH1 0x20 DUP15 ADD MSTORE PUSH2 0x788 SWAP2 PUSH2 0x16D3 JUMP JUMPDEST DUP12 DUP2 SUB PUSH1 0x40 DUP14 ADD MSTORE PUSH2 0x799 SWAP2 PUSH2 0x16D3 JUMP JUMPDEST DUP11 DUP2 SUB PUSH1 0x60 DUP13 ADD MSTORE PUSH2 0x7AA SWAP2 PUSH2 0x16D3 JUMP JUMPDEST SWAP3 PUSH1 0x80 DUP11 ADD MSTORE PUSH1 0xFF DUP2 AND ISZERO ISZERO PUSH1 0xA0 DUP11 ADD MSTORE PUSH1 0x1 PUSH1 0xA0 SHL PUSH1 0x1 SWAP1 SUB DUP2 PUSH1 0x8 SHR AND PUSH1 0xC0 DUP11 ADD MSTORE PUSH1 0xA8 SHR PUSH1 0xFF AND ISZERO ISZERO PUSH1 0xE0 DUP10 ADD MSTORE PUSH2 0x100 DUP9 ADD MSTORE DUP7 DUP2 SUB PUSH2 0x120 DUP9 ADD MSTORE PUSH2 0x7F3 SWAP2 PUSH2 0x16D3 JUMP JUMPDEST PUSH1 0xFF DUP3 AND ISZERO ISZERO PUSH2 0x140 DUP8 ADD MSTORE PUSH1 0x8 SWAP2 SWAP1 SWAP2 SHR PUSH1 0x1 PUSH1 0x1 PUSH1 0xA0 SHL SUB AND PUSH2 0x160 DUP7 ADD MSTORE DUP5 DUP2 SUB PUSH2 0x180 DUP7 ADD MSTORE PUSH2 0x826 SWAP2 PUSH2 0x16D3 JUMP JUMPDEST SWAP2 PUSH2 0x1A0 DUP5 ADD MSTORE ISZERO ISZERO PUSH2 0x1C0 DUP4 ADD MSTORE SUB SWAP1 RETURN JUMPDEST POP CALLVALUE PUSH2 0x321 JUMPI PUSH1 0xE0 CALLDATASIZE PUSH1 0x3 NOT ADD SLT PUSH2 0x321 JUMPI PUSH1 0x4 CALLDATALOAD PUSH1 0x1 PUSH1 0x1 PUSH1 0x40 SHL SUB DUP2 GT PUSH2 0x31F JUMPI PUSH2 0x86A SWAP1 CALLDATASIZE SWAP1 PUSH1 0x4 ADD PUSH2 0x157C JUMP JUMPDEST PUSH1 0x24 CALLDATALOAD PUSH1 0x1 PUSH1 0x1 PUSH1 0x40 SHL SUB DUP2 GT PUSH2 0xF65 JUMPI PUSH2 0x889 SWAP1 CALLDATASIZE SWAP1 PUSH1 0x4 ADD PUSH2 0x157C JUMP JUMPDEST SWAP1 PUSH1 0x44 CALLDATALOAD PUSH1 0x1 PUSH1 0x1 PUSH1 0x40 SHL SUB DUP2 GT PUSH2 0xFA0 JUMPI PUSH2 0x8A9 SWAP1 CALLDATASIZE SWAP1 PUSH1 0x4 ADD PUSH2 0x157C JUMP JUMPDEST PUSH1 0x64 CALLDATALOAD PUSH1 0x1 PUSH1 0x1 PUSH1 0x40 SHL SUB DUP2 GT PUSH2 0xF9C JUMPI PUSH2 0x8C8 SWAP1 CALLDATASIZE SWAP1 PUSH1 0x4 ADD PUSH2 0x157C JUMP JUMPDEST SWAP4 PUSH1 0x84 CALLDATALOAD SWAP1 PUSH1 0xA4 CALLDATALOAD SWAP4 PUSH1 0x1 PUSH1 0x1 PUSH1 0x40 SHL SUB DUP6 GT PUSH2 0x31F JUMPI CALLDATASIZE PUSH1 0x23 DUP7 ADD SLT ISZERO PUSH2 0x31F JUMPI DUP5 PUSH1 0x4 ADD CALLDATALOAD SWAP5 PUSH2 0x8F9 DUP7 PUSH2 0x16F8 JUMP JUMPDEST SWAP6 PUSH2 0x907 PUSH1 0x40 MLOAD SWAP8 DUP9 PUSH2 0x1545 JUMP JUMPDEST DUP1 DUP8 MSTORE PUSH1 0x5 SHL DUP2 ADD PUSH1 0x24 ADD PUSH1 0x20 DUP8 ADD CALLDATASIZE DUP3 GT PUSH2 0xF9C JUMPI PUSH1 0x24 DUP4 ADD SWAP1 JUMPDEST DUP3 DUP3 LT PUSH2 0xF69 JUMPI POP POP POP POP PUSH1 0xC4 CALLDATALOAD SWAP4 PUSH1 0x1 PUSH1 0x1 PUSH1 0x40 SHL SUB DUP6 GT PUSH2 0xF65 JUMPI CALLDATASIZE PUSH1 0x23 DUP7 ADD SLT ISZERO PUSH2 0xF65 JUMPI DUP5 PUSH1 0x4 ADD CALLDATALOAD SWAP5 PUSH2 0x95A DUP7 PUSH2 0x16F8 JUMP JUMPDEST SWAP6 PUSH2 0x968 PUSH1 0x40 MLOAD SWAP8 DUP9 PUSH2 0x1545 JUMP JUMPDEST DUP1 DUP8 MSTORE PUSH1 0x24 PUSH1 0x20 DUP9 ADD SWAP2 PUSH1 0x5 SHL DUP4 ADD ADD SWAP2 CALLDATASIZE DUP4 GT PUSH2 0xF61 JUMPI PUSH1 0x24 ADD SWAP1 JUMPDEST DUP3 DUP3 LT PUSH2 0xF51 JUMPI POP POP POP PUSH1 0x40 SWAP1 PUSH2 0xA20 DUP3 MLOAD PUSH2 0x9A1 DUP5 DUP3 PUSH2 0x1545 JUMP JUMPDEST PUSH1 0x16 DUP2 MSTORE PUSH1 0x20 DUP2 ADD PUSH22 0x507265736964696E67204F6666696365722028504F29 PUSH1 0x50 SHL DUP2 MSTORE CALLER DUP8 MSTORE PUSH1 0x3 PUSH1 0x20 MSTORE PUSH2 0x9DF PUSH1 0xFF PUSH1 0x5 DUP8 DUP11 KECCAK256 ADD SLOAD AND PUSH2 0x18E6 JUMP JUMPDEST CALLER DUP8 MSTORE PUSH1 0x3 PUSH1 0x20 MSTORE PUSH1 0x1 DUP6 DUP9 KECCAK256 ADD DUP6 MLOAD PUSH2 0xA01 DUP2 PUSH2 0x177 PUSH1 0x20 DUP3 ADD DUP1 SWAP6 PUSH2 0x194E JUMP JUMPDEST MLOAD SWAP1 KECCAK256 SWAP2 PUSH2 0x1B5 PUSH1 0x20 DUP8 MLOAD DUP1 SWAP4 PUSH2 0x1A4 DUP4 DUP4 ADD SWAP7 DUP8 SWAP3 MLOAD SWAP3 DUP4 SWAP2 PUSH2 0x16B0 JUMP JUMPDEST DUP7 MLOAD DUP7 MLOAD SUB PUSH2 0xED9 JUMPI CALLER DUP5 MSTORE PUSH1 0x3 PUSH1 0x20 MSTORE PUSH1 0x2 DUP3 DUP6 KECCAK256 ADD DUP3 MLOAD PUSH2 0xA4B DUP2 PUSH2 0x177 PUSH1 0x20 DUP3 ADD DUP1 SWAP6 PUSH2 0x194E JUMP JUMPDEST MLOAD SWAP1 KECCAK256 PUSH2 0xA70 DUP4 MLOAD SWAP2 PUSH1 0x20 DUP4 ADD DUP7 MLOAD SWAP4 PUSH2 0x262 PUSH1 0x20 DUP3 DUP2 DUP12 ADD SWAP8 PUSH2 0x1A4 DUP2 DUP8 DUP12 PUSH2 0x16B0 JUMP JUMPDEST PUSH2 0xA87 PUSH1 0x2 DUP5 MLOAD PUSH1 0x20 DUP2 DUP9 MLOAD PUSH2 0x1E1 DUP2 DUP4 DUP10 PUSH2 0x16B0 JUMP JUMPDEST PUSH2 0xCEB JUMPI PUSH1 0x2 SLOAD PUSH1 0x1 PUSH1 0x40 SHL DUP2 LT ISZERO PUSH2 0xCD7 JUMPI DUP1 PUSH1 0x1 PUSH2 0xAAC SWAP3 ADD PUSH1 0x2 SSTORE PUSH1 0x2 PUSH2 0x1735 JUMP JUMPDEST PUSH2 0xCC3 JUMPI PUSH2 0xB1B SWAP3 PUSH2 0xB09 DUP12 PUSH2 0xAE7 PUSH1 0x20 PUSH1 0x1 SWAP16 SWAP7 PUSH2 0xACE DUP12 PUSH2 0xB12 SWAP9 PUSH2 0x181C JUMP JUMPDEST SWAP3 POP SWAP3 POP SWAP3 SWAP13 SWAP14 POP JUMPDEST DUP7 MLOAD DUP1 SWAP4 DUP2 SWAP3 DUP11 MLOAD SWAP3 DUP4 SWAP2 PUSH2 0x16B0 JUMP JUMPDEST DUP2 ADD PUSH1 0x1 DUP2 MSTORE SUB ADD SWAP1 KECCAK256 SWAP10 PUSH2 0xAFC DUP7 DUP13 PUSH2 0x181C JUMP JUMPDEST PUSH2 0xB09 DUP13 PUSH1 0x1 DUP14 ADD PUSH2 0x181C JUMP JUMPDEST PUSH1 0x2 DUP12 ADD PUSH2 0x181C JUMP JUMPDEST PUSH1 0x3 DUP10 ADD PUSH2 0x181C JUMP JUMPDEST DUP4 PUSH1 0x4 DUP9 ADD SSTORE DUP3 SWAP8 PUSH1 0x6 DUP9 ADD SWAP5 PUSH1 0x5 DUP10 ADD SWAP10 JUMPDEST DUP9 MLOAD DUP2 LT ISZERO PUSH2 0xBC1 JUMPI PUSH2 0xB41 DUP2 DUP11 PUSH2 0x1C4C JUMP JUMPDEST MLOAD DUP8 SLOAD PUSH1 0x1 PUSH1 0x40 SHL DUP2 LT ISZERO PUSH2 0xBAD JUMPI DUP1 PUSH1 0x1 PUSH2 0xB60 SWAP3 ADD DUP11 SSTORE DUP10 PUSH2 0x1735 JUMP JUMPDEST PUSH2 0xB99 JUMPI PUSH2 0xB92 DUP14 PUSH2 0xB8C DUP6 PUSH2 0xB85 DUP16 SWAP6 SWAP8 DUP16 PUSH2 0xB80 DUP3 SWAP10 PUSH1 0x1 SWAP12 PUSH2 0x181C JUMP JUMPDEST PUSH2 0x1C4C JUMP JUMPDEST MLOAD SWAP5 PUSH2 0x1C4C JUMP JUMPDEST MLOAD PUSH2 0x170F JUMP JUMPDEST SSTORE ADD PUSH2 0xB2E JUMP JUMPDEST PUSH4 0x4E487B71 PUSH1 0xE0 SHL DUP9 MSTORE PUSH1 0x4 DUP9 SWAP1 MSTORE PUSH1 0x24 DUP9 REVERT JUMPDEST PUSH4 0x4E487B71 PUSH1 0xE0 SHL DUP9 MSTORE PUSH1 0x41 PUSH1 0x4 MSTORE PUSH1 0x24 DUP9 REVERT JUMPDEST POP PUSH1 0x7 DUP10 ADD DUP1 SLOAD PUSH1 0x1 PUSH1 0x1 PUSH1 0xA8 SHL SUB NOT AND CALLER PUSH1 0x8 SHL PUSH2 0x100 PUSH1 0x1 PUSH1 0xA8 SHL SUB AND OR PUSH1 0x1 OR SWAP1 SSTORE PUSH32 0xF8199F38537119533219C04D4F21E0645CFA7CDD3304001CC13F10C0F62C5B1E SWAP4 SWAP3 SWAP2 PUSH32 0x864A7B3F39F280ADCF854CF2647567B1DB19A6E614AB332C04472700EF6F240F SWAP2 PUSH2 0xC65 SWAP2 SWAP1 DUP12 PUSH1 0xC TIMESTAMP SWAP2 ADD SSTORE PUSH2 0xC41 DUP7 PUSH2 0x1C60 JUMP JUMPDEST DUP5 MLOAD SWAP3 DUP4 SWAP3 PUSH1 0x80 DUP5 MSTORE PUSH2 0xC57 PUSH1 0x80 DUP6 ADD DUP10 PUSH2 0x16D3 JUMP JUMPDEST SWAP1 DUP5 DUP3 SUB PUSH1 0x20 DUP7 ADD MSTORE PUSH2 0x16D3 JUMP JUMPDEST SWAP1 DUP6 DUP4 ADD MSTORE TIMESTAMP PUSH1 0x60 DUP4 ADD MSTORE SUB SWAP1 LOG1 PUSH2 0xC87 DUP2 MLOAD SWAP3 PUSH1 0x80 DUP5 MSTORE PUSH1 0x80 DUP5 ADD SWAP1 PUSH2 0x16D3 JUMP JUMPDEST PUSH22 0x507265736964696E67204F6666696365722028504F29 PUSH1 0x50 SHL PUSH1 0x20 DUP5 DUP4 SUB SWAP3 DUP4 DUP3 DUP8 ADD MSTORE PUSH1 0x16 DUP2 MSTORE ADD MSTORE CALLER DUP3 DUP5 ADD MSTORE TIMESTAMP PUSH1 0x60 DUP5 ADD MSTORE ADD SWAP1 LOG1 DUP1 RETURN JUMPDEST PUSH4 0x4E487B71 PUSH1 0xE0 SHL DUP7 MSTORE PUSH1 0x4 DUP7 SWAP1 MSTORE PUSH1 0x24 DUP7 REVERT JUMPDEST PUSH4 0x4E487B71 PUSH1 0xE0 SHL DUP7 MSTORE PUSH1 0x41 PUSH1 0x4 MSTORE PUSH1 0x24 DUP7 REVERT JUMPDEST SWAP8 SWAP3 SWAP4 SWAP6 SWAP1 SWAP7 SWAP2 SWAP5 PUSH1 0xFF PUSH1 0xD PUSH2 0xD0D PUSH1 0x20 DUP13 DUP11 MLOAD DUP1 SWAP4 DUP2 SWAP3 DUP13 MLOAD SWAP3 DUP4 SWAP2 PUSH2 0x16B0 JUMP JUMPDEST DUP2 ADD PUSH1 0x1 DUP2 MSTORE SUB ADD SWAP1 KECCAK256 ADD SLOAD AND PUSH2 0xE7C JUMPI PUSH1 0x1 SWAP10 DUP8 JUMPDEST PUSH1 0x6 PUSH2 0xD3B PUSH1 0x20 DUP14 DUP12 MLOAD DUP1 SWAP4 DUP2 SWAP3 DUP14 MLOAD SWAP3 DUP4 SWAP2 PUSH2 0x16B0 JUMP JUMPDEST DUP2 ADD PUSH1 0x1 DUP2 MSTORE SUB ADD SWAP1 KECCAK256 ADD SLOAD DUP2 LT ISZERO PUSH2 0xDB7 JUMPI DUP1 DUP10 PUSH2 0xDB0 DUP11 DUP16 SWAP5 DUP16 PUSH1 0x20 PUSH2 0xDA0 SWAP2 DUP15 PUSH2 0xD90 PUSH2 0xD8A PUSH1 0x5 SWAP7 PUSH1 0x6 DUP10 MLOAD DUP8 DUP2 DUP8 MLOAD PUSH2 0xD7A DUP2 DUP4 DUP13 PUSH2 0x16B0 JUMP JUMPDEST DUP2 ADD PUSH1 0x1 DUP2 MSTORE SUB ADD SWAP1 KECCAK256 ADD PUSH2 0x1735 JUMP JUMPDEST POP PUSH2 0x160C JUMP JUMPDEST SWAP6 MLOAD SWAP4 DUP5 SWAP3 DUP4 SWAP3 MLOAD SWAP3 DUP4 SWAP2 PUSH2 0x16B0 JUMP JUMPDEST DUP2 ADD DUP10 DUP2 MSTORE SUB ADD SWAP1 KECCAK256 ADD SWAP1 PUSH2 0x170F JUMP JUMPDEST SSTORE ADD PUSH2 0xD23 JUMP JUMPDEST POP SWAP2 SWAP7 SWAP5 SWAP4 DUP1 SWAP10 SWAP9 SWAP2 SWAP7 SWAP4 SWAP9 PUSH1 0x6 DUP6 MLOAD PUSH1 0x20 DUP2 DUP10 MLOAD PUSH2 0xDD7 DUP2 DUP4 DUP9 PUSH2 0x16B0 JUMP JUMPDEST DUP2 ADD PUSH1 0x1 DUP2 MSTORE SUB ADD SWAP1 KECCAK256 ADD DUP1 SLOAD SWAP1 DUP9 DUP2 SSTORE DUP2 PUSH2 0xE08 JUMPI JUMPDEST POP POP PUSH2 0xB12 SWAP2 POP PUSH2 0xB1B SWAP4 SWAP3 SWAP11 SWAP12 POP PUSH1 0x20 PUSH2 0xAE7 SWAP2 PUSH2 0xAD7 JUMP JUMPDEST DUP9 MSTORE PUSH1 0x20 DUP9 KECCAK256 SWAP1 DUP2 ADD SWAP1 JUMPDEST DUP2 DUP2 LT ISZERO PUSH2 0xDEE JUMPI DUP14 SWAP2 SWAP3 SWAP4 POP PUSH2 0xE2A DUP2 SLOAD PUSH2 0x15D2 JUMP JUMPDEST DUP1 PUSH2 0xE3B JUMPI JUMPDEST POP ADD SWAP1 DUP12 SWAP3 SWAP2 PUSH2 0xE13 JUMP JUMPDEST PUSH1 0x1F DUP2 GT DUP4 EQ PUSH2 0xE50 JUMPI POP DUP9 DUP2 SSTORE JUMPDEST CODESIZE PUSH2 0xE30 JUMP JUMPDEST DUP2 DUP11 MSTORE PUSH1 0x20 DUP11 KECCAK256 PUSH2 0xE6B SWAP2 PUSH1 0x1F ADD PUSH1 0x5 SHR DUP2 ADD SWAP1 DUP5 ADD PUSH2 0x17C0 JUMP JUMPDEST DUP1 DUP10 MSTORE DUP9 PUSH1 0x20 DUP2 KECCAK256 DUP2 DUP4 SSTORE SSTORE PUSH2 0xE4A JUMP JUMPDEST DUP6 MLOAD PUSH3 0x461BCD PUSH1 0xE5 SHL DUP2 MSTORE PUSH1 0x20 PUSH1 0x4 DUP3 ADD MSTORE PUSH1 0x30 PUSH1 0x24 DUP3 ADD MSTORE PUSH32 0x456C656374696F6E526573756C74733A2063616E6E6F74207570646174652066 PUSH1 0x44 DUP3 ADD MSTORE PUSH16 0x696E616C697A656420726573756C7473 PUSH1 0x80 SHL PUSH1 0x64 DUP3 ADD MSTORE PUSH1 0x84 SWAP1 REVERT JUMPDEST DUP2 MLOAD PUSH3 0x461BCD PUSH1 0xE5 SHL DUP2 MSTORE PUSH1 0x20 PUSH1 0x4 DUP3 ADD MSTORE PUSH1 0x45 PUSH1 0x24 DUP3 ADD MSTORE PUSH32 0x456C656374696F6E526573756C74733A2063616E646964617465204944732061 PUSH1 0x44 DUP3 ADD MSTORE PUSH32 0x6E6420766F74657320617272617973206D75737420686176652073616D65206C PUSH1 0x64 DUP3 ADD MSTORE PUSH5 0xCADCCEE8D PUSH1 0xDB SHL PUSH1 0x84 DUP3 ADD MSTORE PUSH1 0xA4 SWAP1 REVERT JUMPDEST DUP2 CALLDATALOAD DUP2 MSTORE PUSH1 0x20 SWAP2 DUP3 ADD SWAP2 ADD PUSH2 0x985 JUMP JUMPDEST DUP6 DUP1 REVERT JUMPDEST DUP3 DUP1 REVERT JUMPDEST DUP2 CALLDATALOAD PUSH1 0x1 PUSH1 0x1 PUSH1 0x40 SHL SUB DUP2 GT PUSH2 0xF98 JUMPI PUSH1 0x20 SWAP2 PUSH2 0xF8D DUP4 SWAP3 PUSH1 0x24 CALLDATASIZE SWAP2 DUP10 ADD ADD PUSH2 0x157C JUMP JUMPDEST DUP2 MSTORE ADD SWAP2 ADD SWAP1 PUSH2 0x923 JUMP JUMPDEST DUP7 DUP1 REVERT JUMPDEST DUP5 DUP1 REVERT JUMPDEST DUP4 DUP1 REVERT JUMPDEST POP CALLVALUE PUSH2 0x321 JUMPI PUSH1 0x20 CALLDATASIZE PUSH1 0x3 NOT ADD SLT PUSH2 0x321 JUMPI PUSH1 0x4 CALLDATALOAD SWAP1 PUSH1 0x1 PUSH1 0x1 PUSH1 0x40 SHL SUB DUP3 GT PUSH2 0x321 JUMPI PUSH2 0x1033 PUSH2 0xFDD PUSH1 0x20 PUSH2 0x54D CALLDATASIZE PUSH1 0x4 DUP8 ADD PUSH2 0x157C JUMP JUMPDEST DUP2 ADD PUSH1 0x1 DUP2 MSTORE SUB ADD SWAP1 KECCAK256 PUSH1 0x4 DUP2 ADD SLOAD PUSH1 0xC DUP3 ADD SLOAD PUSH1 0xFF PUSH1 0xD DUP5 ADD SLOAD AND SWAP1 PUSH2 0x104F PUSH2 0x1009 PUSH1 0x1 DUP7 ADD PUSH2 0x160C JUMP JUMPDEST SWAP5 PUSH2 0x1041 PUSH2 0x101E PUSH1 0x3 PUSH2 0x5AE PUSH1 0x2 DUP6 ADD PUSH2 0x160C JUMP JUMPDEST SWAP2 PUSH1 0x40 MLOAD SWAP9 DUP10 SWAP9 PUSH1 0xC0 DUP11 MSTORE PUSH1 0xC0 DUP11 ADD SWAP1 PUSH2 0x16D3 JUMP JUMPDEST SWAP1 DUP9 DUP3 SUB PUSH1 0x20 DUP11 ADD MSTORE PUSH2 0x16D3 JUMP JUMPDEST SWAP1 DUP7 DUP3 SUB PUSH1 0x40 DUP9 ADD MSTORE PUSH2 0x16D3 JUMP JUMPDEST SWAP3 PUSH1 0x60 DUP6 ADD MSTORE PUSH1 0x80 DUP5 ADD MSTORE ISZERO ISZERO PUSH1 0xA0 DUP4 ADD MSTORE SUB SWAP1 RETURN JUMPDEST POP CALLVALUE PUSH2 0x321 JUMPI PUSH1 0x20 CALLDATASIZE PUSH1 0x3 NOT ADD SLT PUSH2 0x321 JUMPI PUSH1 0x4 CALLDATALOAD PUSH1 0x1 PUSH1 0x1 PUSH1 0x40 SHL SUB DUP2 GT PUSH2 0x31F JUMPI PUSH2 0x109D PUSH1 0x20 PUSH2 0x54D PUSH1 0x6 SWAP4 CALLDATASIZE SWAP1 PUSH1 0x4 ADD PUSH2 0x157C JUMP JUMPDEST DUP2 ADD PUSH1 0x1 DUP2 MSTORE SUB ADD SWAP1 KECCAK256 ADD DUP1 SLOAD PUSH2 0x10B3 DUP2 PUSH2 0x16F8 JUMP JUMPDEST SWAP1 PUSH2 0x10C1 PUSH1 0x40 MLOAD SWAP3 DUP4 PUSH2 0x1545 JUMP JUMPDEST DUP1 DUP3 MSTORE PUSH1 0x20 DUP3 ADD DUP1 SWAP4 DUP6 MSTORE PUSH1 0x20 DUP6 KECCAK256 DUP6 SWAP2 JUMPDEST DUP4 DUP4 LT PUSH2 0x113F JUMPI DUP7 DUP6 DUP8 PUSH1 0x40 MLOAD SWAP3 DUP4 SWAP3 PUSH1 0x20 DUP5 ADD SWAP1 PUSH1 0x20 DUP6 MSTORE MLOAD DUP1 SWAP2 MSTORE PUSH1 0x40 DUP5 ADD PUSH1 0x40 DUP3 PUSH1 0x5 SHL DUP7 ADD ADD SWAP4 SWAP3 SWAP1 JUMPDEST DUP3 DUP3 LT PUSH2 0x1110 JUMPI POP POP POP POP SUB SWAP1 RETURN JUMPDEST SWAP2 SWAP4 PUSH1 0x1 SWAP2 SWAP4 SWAP6 POP PUSH1 0x20 PUSH2 0x112F DUP2 SWAP3 PUSH1 0x3F NOT DUP11 DUP3 SUB ADD DUP7 MSTORE DUP9 MLOAD PUSH2 0x16D3 JUMP JUMPDEST SWAP7 ADD SWAP3 ADD SWAP3 ADD DUP6 SWAP5 SWAP4 SWAP2 SWAP3 PUSH2 0x1101 JUMP JUMPDEST PUSH1 0x1 PUSH1 0x20 DUP2 SWAP3 PUSH2 0x114E DUP6 PUSH2 0x160C JUMP JUMPDEST DUP2 MSTORE ADD SWAP3 ADD SWAP3 ADD SWAP2 SWAP1 PUSH2 0x10D3 JUMP JUMPDEST POP CALLVALUE PUSH2 0x321 JUMPI PUSH1 0x20 CALLDATASIZE PUSH1 0x3 NOT ADD SLT PUSH2 0x321 JUMPI PUSH2 0x11F3 SWAP1 PUSH1 0x40 SWAP1 PUSH1 0x1 PUSH1 0x1 PUSH1 0xA0 SHL SUB PUSH2 0x1185 PUSH2 0x152A JUMP JUMPDEST AND DUP2 MSTORE PUSH1 0x3 PUSH1 0x20 MSTORE KECCAK256 PUSH2 0x1197 DUP2 PUSH2 0x160C JUMP JUMPDEST SWAP1 PUSH2 0x122B PUSH2 0x11A7 PUSH1 0x1 DUP4 ADD PUSH2 0x160C JUMP JUMPDEST SWAP2 PUSH2 0x121D PUSH2 0x11B7 PUSH1 0x2 DUP4 ADD PUSH2 0x160C JUMP JUMPDEST PUSH2 0x120F PUSH2 0x11C6 PUSH1 0x3 DUP6 ADD PUSH2 0x160C JUMP JUMPDEST SWAP2 PUSH2 0x1201 PUSH1 0xFF PUSH1 0x5 PUSH2 0x11DA PUSH1 0x4 DUP10 ADD PUSH2 0x160C JUMP JUMPDEST SWAP8 ADD SLOAD AND SWAP8 PUSH1 0x40 MLOAD SWAP11 DUP12 SWAP11 PUSH1 0xC0 DUP13 MSTORE PUSH1 0xC0 DUP13 ADD SWAP1 PUSH2 0x16D3 JUMP JUMPDEST SWAP1 DUP11 DUP3 SUB PUSH1 0x20 DUP13 ADD MSTORE PUSH2 0x16D3 JUMP JUMPDEST SWAP1 DUP9 DUP3 SUB PUSH1 0x40 DUP11 ADD MSTORE PUSH2 0x16D3 JUMP JUMPDEST SWAP1 DUP7 DUP3 SUB PUSH1 0x60 DUP9 ADD MSTORE PUSH2 0x16D3 JUMP JUMPDEST SWAP1 DUP5 DUP3 SUB PUSH1 0x80 DUP7 ADD MSTORE PUSH2 0x16D3 JUMP JUMPDEST SWAP1 ISZERO ISZERO PUSH1 0xA0 DUP4 ADD MSTORE SUB SWAP1 RETURN JUMPDEST POP CALLVALUE PUSH2 0x321 JUMPI PUSH1 0x20 CALLDATASIZE PUSH1 0x3 NOT ADD SLT PUSH2 0x321 JUMPI PUSH1 0x4 CALLDATALOAD PUSH1 0x1 PUSH1 0x1 PUSH1 0x40 SHL SUB DUP2 GT PUSH2 0x31F JUMPI PUSH2 0x1289 PUSH32 0xF8199F38537119533219C04D4F21E0645CFA7CDD3304001CC13F10C0F62C5B1E SWAP2 CALLDATASIZE SWAP1 PUSH1 0x4 ADD PUSH2 0x157C JUMP JUMPDEST PUSH1 0x40 PUSH2 0x12CE DUP2 MLOAD PUSH2 0x129A DUP4 DUP3 PUSH2 0x1545 JUMP JUMPDEST PUSH1 0xC DUP2 MSTORE PUSH1 0x20 DUP2 ADD PUSH12 0x5061727479204167656E7473 PUSH1 0xA0 SHL DUP2 MSTORE CALLER DUP8 MSTORE PUSH1 0x3 PUSH1 0x20 MSTORE PUSH2 0x155 PUSH1 0xFF PUSH1 0x5 DUP7 DUP11 KECCAK256 ADD SLOAD AND PUSH2 0x18E6 JUMP JUMPDEST PUSH2 0x12F1 PUSH1 0x20 DUP3 MLOAD PUSH2 0x1F9 PUSH2 0x1F2 PUSH1 0x2 DUP8 MLOAD SWAP4 DUP6 DUP2 DUP2 DUP12 ADD SWAP7 PUSH2 0x1E1 DUP2 DUP4 DUP11 PUSH2 0x16B0 JUMP JUMPDEST PUSH1 0x1 SWAP1 DUP3 ADD SWAP1 DUP2 MSTORE SUB ADD SWAP1 KECCAK256 PUSH1 0x7 DUP2 ADD DUP1 SLOAD PUSH1 0xFF PUSH1 0xA8 SHL NOT AND PUSH1 0x1 PUSH1 0xA8 SHL OR SWAP1 SSTORE PUSH1 0x8 DUP2 ADD DUP1 SLOAD PUSH1 0x1 PUSH1 0x1 PUSH1 0xA0 SHL SUB NOT AND CALLER SWAP1 DUP2 OR SWAP1 SWAP2 SSTORE DUP6 MSTORE PUSH1 0x3 PUSH1 0x20 DUP2 SWAP1 MSTORE DUP3 DUP7 KECCAK256 PUSH2 0x1343 SWAP2 ADD PUSH1 0x9 DUP4 ADD PUSH2 0x1B75 JUMP JUMPDEST PUSH1 0xC TIMESTAMP SWAP2 ADD SSTORE PUSH2 0x1352 DUP3 PUSH2 0x1C60 JUMP JUMPDEST PUSH2 0x1366 DUP2 MLOAD SWAP3 PUSH1 0x80 DUP5 MSTORE PUSH1 0x80 DUP5 ADD SWAP1 PUSH2 0x16D3 JUMP JUMPDEST PUSH12 0x5061727479204167656E7473 PUSH1 0xA0 SHL PUSH1 0x20 DUP5 DUP4 SUB SWAP3 DUP4 DUP3 DUP8 ADD MSTORE PUSH1 0xC DUP2 MSTORE ADD MSTORE CALLER DUP3 DUP5 ADD MSTORE TIMESTAMP PUSH1 0x60 DUP5 ADD MSTORE ADD SWAP1 LOG1 DUP1 RETURN JUMPDEST POP CALLVALUE PUSH2 0x321 JUMPI PUSH1 0xC0 CALLDATASIZE PUSH1 0x3 NOT ADD SLT PUSH2 0x321 JUMPI PUSH2 0x13B2 PUSH2 0x152A JUMP JUMPDEST PUSH1 0x24 CALLDATALOAD PUSH1 0x1 PUSH1 0x1 PUSH1 0x40 SHL SUB DUP2 GT PUSH2 0xF65 JUMPI PUSH2 0x13D1 SWAP1 CALLDATASIZE SWAP1 PUSH1 0x4 ADD PUSH2 0x157C JUMP JUMPDEST PUSH1 0x44 CALLDATALOAD PUSH1 0x1 PUSH1 0x1 PUSH1 0x40 SHL SUB DUP2 GT PUSH2 0xFA0 JUMPI PUSH2 0x13F0 SWAP1 CALLDATASIZE SWAP1 PUSH1 0x4 ADD PUSH2 0x157C JUMP JUMPDEST PUSH1 0x64 CALLDATALOAD PUSH1 0x1 PUSH1 0x1 PUSH1 0x40 SHL SUB DUP2 GT PUSH2 0xF9C JUMPI PUSH2 0x140F SWAP1 CALLDATASIZE SWAP1 PUSH1 0x4 ADD PUSH2 0x157C JUMP JUMPDEST PUSH1 0x84 CALLDATALOAD PUSH1 0x1 PUSH1 0x1 PUSH1 0x40 SHL SUB DUP2 GT PUSH2 0xF61 JUMPI PUSH2 0x142E SWAP1 CALLDATASIZE SWAP1 PUSH1 0x4 ADD PUSH2 0x157C JUMP JUMPDEST SWAP1 PUSH1 0xA4 CALLDATALOAD PUSH1 0x1 PUSH1 0x1 PUSH1 0x40 SHL SUB DUP2 GT PUSH2 0xF98 JUMPI PUSH2 0x144E SWAP1 CALLDATASIZE SWAP1 PUSH1 0x4 ADD PUSH2 0x157C JUMP JUMPDEST SWAP3 PUSH2 0x1463 PUSH1 0x1 DUP1 PUSH1 0xA0 SHL SUB DUP9 SLOAD AND CALLER EQ PUSH2 0x1763 JUMP JUMPDEST PUSH1 0x40 MLOAD SWAP5 PUSH1 0xC0 DUP7 ADD DUP7 DUP2 LT PUSH1 0x1 PUSH1 0x1 PUSH1 0x40 SHL SUB DUP3 GT OR PUSH2 0x1516 JUMPI PUSH1 0x5 SWAP7 SWAP6 SWAP4 PUSH2 0x14E4 PUSH2 0x14F8 SWAP5 PUSH2 0x1502 SWAP8 SWAP5 PUSH2 0x14EE SWAP5 PUSH1 0x40 MSTORE DUP10 MSTORE PUSH1 0x20 DUP10 ADD SWAP1 DUP2 MSTORE PUSH1 0x40 DUP10 ADD SWAP3 DUP4 MSTORE PUSH1 0x60 DUP10 ADD SWAP5 DUP6 MSTORE PUSH1 0x80 DUP10 ADD SWAP7 DUP8 MSTORE PUSH1 0xA0 DUP10 ADD SWAP11 PUSH1 0x1 DUP13 MSTORE PUSH1 0x1 DUP1 PUSH1 0xA0 SHL SUB AND DUP13 MSTORE PUSH1 0x3 PUSH1 0x20 MSTORE PUSH2 0x14DA PUSH1 0x40 DUP14 KECCAK256 SWAP10 MLOAD DUP11 PUSH2 0x181C JUMP JUMPDEST MLOAD PUSH1 0x1 DUP10 ADD PUSH2 0x181C JUMP JUMPDEST MLOAD PUSH1 0x2 DUP8 ADD PUSH2 0x181C JUMP JUMPDEST MLOAD PUSH1 0x3 DUP6 ADD PUSH2 0x181C JUMP JUMPDEST MLOAD PUSH1 0x4 DUP4 ADD PUSH2 0x181C JUMP JUMPDEST ADD SWAP1 MLOAD ISZERO ISZERO PUSH1 0xFF DUP1 NOT DUP4 SLOAD AND SWAP2 AND OR SWAP1 SSTORE DUP1 RETURN JUMPDEST PUSH4 0x4E487B71 PUSH1 0xE0 SHL DUP10 MSTORE PUSH1 0x41 PUSH1 0x4 MSTORE PUSH1 0x24 DUP10 REVERT JUMPDEST PUSH1 0x4 CALLDATALOAD SWAP1 PUSH1 0x1 PUSH1 0x1 PUSH1 0xA0 SHL SUB DUP3 AND DUP3 SUB PUSH2 0x1540 JUMPI JUMP JUMPDEST PUSH1 0x0 DUP1 REVERT JUMPDEST SWAP1 PUSH1 0x1F DUP1 NOT SWAP2 ADD AND DUP2 ADD SWAP1 DUP2 LT PUSH1 0x1 PUSH1 0x1 PUSH1 0x40 SHL SUB DUP3 GT OR PUSH2 0x1566 JUMPI PUSH1 0x40 MSTORE JUMP JUMPDEST PUSH4 0x4E487B71 PUSH1 0xE0 SHL PUSH1 0x0 MSTORE PUSH1 0x41 PUSH1 0x4 MSTORE PUSH1 0x24 PUSH1 0x0 REVERT JUMPDEST DUP2 PUSH1 0x1F DUP3 ADD SLT ISZERO PUSH2 0x1540 JUMPI DUP1 CALLDATALOAD SWAP1 PUSH1 0x1 PUSH1 0x1 PUSH1 0x40 SHL SUB DUP3 GT PUSH2 0x1566 JUMPI PUSH1 0x40 MLOAD SWAP3 PUSH2 0x15B0 PUSH1 0x1F DUP5 ADD PUSH1 0x1F NOT AND PUSH1 0x20 ADD DUP6 PUSH2 0x1545 JUMP JUMPDEST DUP3 DUP5 MSTORE PUSH1 0x20 DUP4 DUP4 ADD ADD GT PUSH2 0x1540 JUMPI DUP2 PUSH1 0x0 SWAP3 PUSH1 0x20 DUP1 SWAP4 ADD DUP4 DUP7 ADD CALLDATACOPY DUP4 ADD ADD MSTORE SWAP1 JUMP JUMPDEST SWAP1 PUSH1 0x1 DUP3 DUP2 SHR SWAP3 AND DUP1 ISZERO PUSH2 0x1602 JUMPI JUMPDEST PUSH1 0x20 DUP4 LT EQ PUSH2 0x15EC JUMPI JUMP JUMPDEST PUSH4 0x4E487B71 PUSH1 0xE0 SHL PUSH1 0x0 MSTORE PUSH1 0x22 PUSH1 0x4 MSTORE PUSH1 0x24 PUSH1 0x0 REVERT JUMPDEST SWAP2 PUSH1 0x7F AND SWAP2 PUSH2 0x15E1 JUMP JUMPDEST SWAP1 PUSH1 0x40 MLOAD SWAP2 DUP3 PUSH1 0x0 DUP3 SLOAD SWAP3 PUSH2 0x1620 DUP5 PUSH2 0x15D2 JUMP JUMPDEST DUP1 DUP5 MSTORE SWAP4 PUSH1 0x1 DUP2 AND SWAP1 DUP2 ISZERO PUSH2 0x168E JUMPI POP PUSH1 0x1 EQ PUSH2 0x1647 JUMPI JUMPDEST POP PUSH2 0x1645 SWAP3 POP SUB DUP4 PUSH2 0x1545 JUMP JUMPDEST JUMP JUMPDEST SWAP1 POP PUSH1 0x0 SWAP3 SWAP2 SWAP3 MSTORE PUSH1 0x20 PUSH1 0x0 KECCAK256 SWAP1 PUSH1 0x0 SWAP2 JUMPDEST DUP2 DUP4 LT PUSH2 0x1672 JUMPI POP POP SWAP1 PUSH1 0x20 PUSH2 0x1645 SWAP3 DUP3 ADD ADD CODESIZE PUSH2 0x1638 JUMP JUMPDEST PUSH1 0x20 SWAP2 SWAP4 POP DUP1 PUSH1 0x1 SWAP2 SLOAD DUP4 DUP6 DUP10 ADD ADD MSTORE ADD SWAP2 ADD SWAP1 SWAP2 DUP5 SWAP3 PUSH2 0x1659 JUMP JUMPDEST SWAP1 POP PUSH1 0x20 SWAP3 POP PUSH2 0x1645 SWAP5 SWAP2 POP PUSH1 0xFF NOT AND DUP3 DUP5 ADD MSTORE ISZERO ISZERO PUSH1 0x5 SHL DUP3 ADD ADD CODESIZE PUSH2 0x1638 JUMP JUMPDEST PUSH1 0x0 JUMPDEST DUP4 DUP2 LT PUSH2 0x16C3 JUMPI POP POP PUSH1 0x0 SWAP2 ADD MSTORE JUMP JUMPDEST DUP2 DUP2 ADD MLOAD DUP4 DUP3 ADD MSTORE PUSH1 0x20 ADD PUSH2 0x16B3 JUMP JUMPDEST SWAP1 PUSH1 0x20 SWAP2 PUSH2 0x16EC DUP2 MLOAD DUP1 SWAP3 DUP2 DUP6 MSTORE DUP6 DUP1 DUP7 ADD SWAP2 ADD PUSH2 0x16B0 JUMP JUMPDEST PUSH1 0x1F ADD PUSH1 0x1F NOT AND ADD ADD SWAP1 JUMP JUMPDEST PUSH1 0x1 PUSH1 0x1 PUSH1 0x40 SHL SUB DUP2 GT PUSH2 0x1566 JUMPI PUSH1 0x5 SHL PUSH1 0x20 ADD SWAP1 JUMP JUMPDEST PUSH1 0x20 SWAP1 PUSH2 0x1729 SWAP3 DUP3 PUSH1 0x40 MLOAD SWAP5 DUP4 DUP7 DUP1 SWAP6 MLOAD SWAP4 DUP5 SWAP3 ADD PUSH2 0x16B0 JUMP JUMPDEST DUP3 ADD SWAP1 DUP2 MSTORE SUB ADD SWAP1 KECCAK256 SWAP1 JUMP JUMPDEST DUP1 SLOAD DUP3 LT ISZERO PUSH2 0x174D JUMPI PUSH1 0x0 MSTORE PUSH1 0x20 PUSH1 0x0 KECCAK256 ADD SWAP1 PUSH1 0x0 SWAP1 JUMP JUMPDEST PUSH4 0x4E487B71 PUSH1 0xE0 SHL PUSH1 0x0 MSTORE PUSH1 0x32 PUSH1 0x4 MSTORE PUSH1 0x24 PUSH1 0x0 REVERT JUMPDEST ISZERO PUSH2 0x176A JUMPI JUMP JUMPDEST PUSH1 0x40 MLOAD PUSH3 0x461BCD PUSH1 0xE5 SHL DUP2 MSTORE PUSH1 0x20 PUSH1 0x4 DUP3 ADD MSTORE PUSH1 0x28 PUSH1 0x24 DUP3 ADD MSTORE PUSH32 0x456C656374696F6E526573756C74733A2063616C6C6572206973206E6F742074 PUSH1 0x44 DUP3 ADD MSTORE PUSH8 0x34329037BBB732B9 PUSH1 0xC1 SHL PUSH1 0x64 DUP3 ADD MSTORE PUSH1 0x84 SWAP1 REVERT JUMPDEST DUP2 DUP2 LT PUSH2 0x17CB JUMPI POP POP JUMP JUMPDEST PUSH1 0x0 DUP2 SSTORE PUSH1 0x1 ADD PUSH2 0x17C0 JUMP JUMPDEST SWAP2 SWAP1 PUSH1 0x1F DUP2 GT PUSH2 0x17E6 JUMPI POP POP POP JUMP JUMPDEST PUSH2 0x1645 SWAP3 PUSH1 0x0 MSTORE PUSH1 0x20 PUSH1 0x0 KECCAK256 SWAP1 PUSH1 0x20 PUSH1 0x1F DUP5 ADD PUSH1 0x5 SHR DUP4 ADD SWAP4 LT PUSH2 0x1812 JUMPI JUMPDEST PUSH1 0x1F ADD PUSH1 0x5 SHR ADD SWAP1 PUSH2 0x17C0 JUMP JUMPDEST SWAP1 SWAP2 POP DUP2 SWAP1 PUSH2 0x1805 JUMP JUMPDEST SWAP2 SWAP1 SWAP2 DUP3 MLOAD PUSH1 0x1 PUSH1 0x1 PUSH1 0x40 SHL SUB DUP2 GT PUSH2 0x1566 JUMPI PUSH2 0x1843 DUP2 PUSH2 0x183D DUP5 SLOAD PUSH2 0x15D2 JUMP JUMPDEST DUP5 PUSH2 0x17D7 JUMP JUMPDEST PUSH1 0x20 PUSH1 0x1F DUP3 GT PUSH1 0x1 EQ PUSH2 0x1884 JUMPI DUP2 SWAP1 PUSH2 0x1875 SWAP4 SWAP5 SWAP6 PUSH1 0x0 SWAP3 PUSH2 0x1879 JUMPI JUMPDEST POP POP DUP2 PUSH1 0x1 SHL SWAP2 PUSH1 0x0 NOT SWAP1 PUSH1 0x3 SHL SHR NOT AND OR SWAP1 JUMP JUMPDEST SWAP1 SSTORE JUMP JUMPDEST ADD MLOAD SWAP1 POP CODESIZE DUP1 PUSH2 0x1860 JUMP JUMPDEST PUSH1 0x1F NOT DUP3 AND SWAP1 DUP4 PUSH1 0x0 MSTORE DUP1 PUSH1 0x0 KECCAK256 SWAP2 PUSH1 0x0 JUMPDEST DUP2 DUP2 LT PUSH2 0x18CE JUMPI POP SWAP6 DUP4 PUSH1 0x1 SWAP6 SWAP7 SWAP8 LT PUSH2 0x18B5 JUMPI JUMPDEST POP POP POP DUP2 SHL ADD SWAP1 SSTORE JUMP JUMPDEST ADD MLOAD PUSH1 0x0 NOT PUSH1 0xF8 DUP5 PUSH1 0x3 SHL AND SHR NOT AND SWAP1 SSTORE CODESIZE DUP1 DUP1 PUSH2 0x18AB JUMP JUMPDEST SWAP2 SWAP3 PUSH1 0x20 PUSH1 0x1 DUP2 SWAP3 DUP7 DUP12 ADD MLOAD DUP2 SSTORE ADD SWAP5 ADD SWAP3 ADD PUSH2 0x1896 JUMP JUMPDEST ISZERO PUSH2 0x18ED JUMPI JUMP JUMPDEST PUSH1 0x40 MLOAD PUSH3 0x461BCD PUSH1 0xE5 SHL DUP2 MSTORE PUSH1 0x20 PUSH1 0x4 DUP3 ADD MSTORE PUSH1 0x33 PUSH1 0x24 DUP3 ADD MSTORE PUSH32 0x456C656374696F6E526573756C74733A2063616C6C6572206973206E6F742061 PUSH1 0x44 DUP3 ADD MSTORE PUSH19 0x371030B1BA34BB329035B2BC903832B939B7B7 PUSH1 0x69 SHL PUSH1 0x64 DUP3 ADD MSTORE PUSH1 0x84 SWAP1 REVERT JUMPDEST PUSH1 0x0 SWAP3 SWAP2 DUP2 SLOAD SWAP2 PUSH2 0x195E DUP4 PUSH2 0x15D2 JUMP JUMPDEST SWAP3 PUSH1 0x1 DUP2 AND SWAP1 DUP2 ISZERO PUSH2 0x19A9 JUMPI POP PUSH1 0x1 EQ PUSH2 0x1977 JUMPI POP POP POP JUMP JUMPDEST SWAP1 SWAP2 SWAP3 SWAP4 POP PUSH1 0x0 MSTORE PUSH1 0x20 PUSH1 0x0 KECCAK256 PUSH1 0x0 SWAP1 JUMPDEST DUP4 DUP3 LT PUSH2 0x1995 JUMPI POP POP ADD SWAP1 JUMP JUMPDEST PUSH1 0x1 DUP2 PUSH1 0x20 SWAP3 SLOAD DUP5 DUP7 ADD MSTORE ADD SWAP2 ADD SWAP1 PUSH2 0x1988 JUMP JUMPDEST PUSH1 0xFF NOT AND DUP4 MSTORE POP POP DUP2 ISZERO ISZERO SWAP1 SWAP2 MUL ADD SWAP2 POP JUMP JUMPDEST ISZERO PUSH2 0x19C3 JUMPI JUMP JUMPDEST PUSH1 0x40 MLOAD PUSH3 0x461BCD PUSH1 0xE5 SHL DUP2 MSTORE PUSH1 0x20 PUSH1 0x4 DUP3 ADD MSTORE PUSH1 0x37 PUSH1 0x24 DUP3 ADD MSTORE PUSH32 0x456C656374696F6E526573756C74733A2063616C6C657220646F6573206E6F74 PUSH1 0x44 DUP3 ADD MSTORE PUSH32 0x20686176652074686520726571756972656420726F6C65000000000000000000 PUSH1 0x64 DUP3 ADD MSTORE PUSH1 0x84 SWAP1 REVERT JUMPDEST ISZERO PUSH2 0x1A35 JUMPI JUMP JUMPDEST PUSH1 0x40 MLOAD PUSH3 0x461BCD PUSH1 0xE5 SHL DUP2 MSTORE PUSH1 0x20 PUSH1 0x4 DUP3 ADD MSTORE PUSH1 0x3A PUSH1 0x24 DUP3 ADD MSTORE PUSH32 0x456C656374696F6E526573756C74733A206E6F20726573756C747320666F756E PUSH1 0x44 DUP3 ADD MSTORE PUSH32 0x6420666F72207468697320706F6C6C696E672073746174696F6E000000000000 PUSH1 0x64 DUP3 ADD MSTORE PUSH1 0x84 SWAP1 REVERT JUMPDEST ISZERO PUSH2 0x1AA7 JUMPI JUMP JUMPDEST PUSH1 0x40 MLOAD PUSH3 0x461BCD PUSH1 0xE5 SHL DUP2 MSTORE PUSH1 0x20 PUSH1 0x4 DUP3 ADD MSTORE PUSH1 0x2E PUSH1 0x24 DUP3 ADD MSTORE PUSH32 0x456C656374696F6E526573756C74733A20726573756C74732061726520616C72 PUSH1 0x44 DUP3 ADD MSTORE PUSH14 0x1958591E48199A5B985B1A5E9959 PUSH1 0x92 SHL PUSH1 0x64 DUP3 ADD MSTORE PUSH1 0x84 SWAP1 REVERT JUMPDEST ISZERO PUSH2 0x1B0A JUMPI JUMP JUMPDEST PUSH1 0x40 MLOAD PUSH3 0x461BCD PUSH1 0xE5 SHL DUP2 MSTORE PUSH1 0x20 PUSH1 0x4 DUP3 ADD MSTORE PUSH1 0x3F PUSH1 0x24 DUP3 ADD MSTORE PUSH32 0x456C656374696F6E526573756C74733A2063616C6C6572206973206E6F742061 PUSH1 0x44 DUP3 ADD MSTORE PUSH32 0x737369676E656420746F207468697320706F6C6C696E672073746174696F6E00 PUSH1 0x64 DUP3 ADD MSTORE PUSH1 0x84 SWAP1 REVERT JUMPDEST SWAP2 SWAP1 SWAP2 DUP3 DUP2 EQ PUSH2 0x1C47 JUMPI PUSH2 0x1B89 DUP4 SLOAD PUSH2 0x15D2 JUMP JUMPDEST PUSH1 0x1 PUSH1 0x1 PUSH1 0x40 SHL SUB DUP2 GT PUSH2 0x1566 JUMPI PUSH2 0x1BA5 DUP2 PUSH2 0x183D DUP5 SLOAD PUSH2 0x15D2 JUMP JUMPDEST PUSH1 0x0 SWAP4 PUSH1 0x1F DUP3 GT PUSH1 0x1 EQ PUSH2 0x1BE2 JUMPI PUSH2 0x1875 SWAP3 SWAP4 SWAP5 DUP3 SWAP2 PUSH1 0x0 SWAP3 PUSH2 0x1BD7 JUMPI POP POP DUP2 PUSH1 0x1 SHL SWAP2 PUSH1 0x0 NOT SWAP1 PUSH1 0x3 SHL SHR NOT AND OR SWAP1 JUMP JUMPDEST ADD SLOAD SWAP1 POP CODESIZE DUP1 PUSH2 0x1860 JUMP JUMPDEST DUP5 MSTORE PUSH1 0x20 DUP1 DUP6 KECCAK256 DUP4 DUP7 MSTORE SWAP1 DUP6 KECCAK256 SWAP1 SWAP5 PUSH1 0x1F NOT DUP4 AND DUP2 JUMPDEST DUP2 DUP2 LT PUSH2 0x1C2F JUMPI POP SWAP6 DUP4 PUSH1 0x1 SWAP6 SWAP7 SWAP8 LT PUSH2 0x1C16 JUMPI POP POP POP DUP2 SHL ADD SWAP1 SSTORE JUMP JUMPDEST ADD SLOAD PUSH1 0x0 NOT PUSH1 0xF8 DUP5 PUSH1 0x3 SHL AND SHR NOT AND SWAP1 SSTORE CODESIZE DUP1 DUP1 PUSH2 0x18AB JUMP JUMPDEST SWAP2 SWAP3 PUSH1 0x1 DUP1 PUSH1 0x20 SWAP3 DUP7 DUP12 ADD SLOAD DUP2 SSTORE ADD SWAP5 ADD SWAP3 ADD PUSH2 0x1BF8 JUMP JUMPDEST POP SWAP1 POP JUMP JUMPDEST DUP1 MLOAD DUP3 LT ISZERO PUSH2 0x174D JUMPI PUSH1 0x20 SWAP2 PUSH1 0x5 SHL ADD ADD SWAP1 JUMP JUMPDEST PUSH1 0x40 MLOAD PUSH1 0x20 DUP2 DUP4 MLOAD PUSH2 0x1C75 DUP2 DUP4 DUP6 DUP9 ADD PUSH2 0x16B0 JUMP JUMPDEST DUP2 ADD PUSH1 0x1 DUP2 MSTORE SUB ADD SWAP1 KECCAK256 PUSH1 0x7 DUP2 ADD SLOAD PUSH1 0xFF DUP2 AND SWAP1 DUP2 PUSH2 0x1DD9 JUMPI JUMPDEST POP DUP1 PUSH2 0x1DCB JUMPI JUMPDEST PUSH2 0x1C9E JUMPI POP POP JUMP JUMPDEST DUP1 PUSH1 0xD PUSH1 0x1 SWAP3 ADD DUP3 PUSH1 0xFF NOT DUP3 SLOAD AND OR SWAP1 SSTORE ADD PUSH2 0x1CC5 PUSH1 0x40 MLOAD SWAP3 PUSH1 0x60 DUP5 MSTORE PUSH1 0x60 DUP5 ADD SWAP1 PUSH2 0x16D3 JUMP JUMPDEST SWAP1 DUP3 DUP3 SUB PUSH1 0x20 DUP5 ADD MSTORE PUSH1 0x0 SWAP2 DUP2 SLOAD SWAP2 PUSH2 0x1CDD DUP4 PUSH2 0x15D2 JUMP JUMPDEST DUP1 DUP4 MSTORE SWAP3 PUSH1 0x1 DUP2 AND SWAP1 DUP2 ISZERO PUSH2 0x1D87 JUMPI POP PUSH1 0x1 EQ PUSH2 0x1D27 JUMPI JUMPDEST POP POP POP SWAP1 DUP1 PUSH32 0x2A8969A8B1CC2562764EEE7E8F40F4A449C1DCDB5FEBFF06F45C736C3E07D6F2 SWAP3 TIMESTAMP PUSH1 0x40 DUP4 ADD MSTORE SUB SWAP1 LOG1 JUMP JUMPDEST SWAP1 SWAP2 SWAP3 POP PUSH1 0x0 MSTORE PUSH1 0x20 PUSH1 0x0 KECCAK256 SWAP2 PUSH1 0x0 SWAP3 JUMPDEST DUP2 DUP5 LT PUSH2 0x1D6D JUMPI POP POP ADD PUSH1 0x20 ADD DUP2 PUSH32 0x2A8969A8B1CC2562764EEE7E8F40F4A449C1DCDB5FEBFF06F45C736C3E07D6F2 CODESIZE PUSH2 0x1CF5 JUMP JUMPDEST PUSH1 0x1 DUP2 PUSH1 0x20 SWAP3 SWAP6 SWAP4 SWAP6 SLOAD DUP4 DUP6 DUP8 ADD ADD MSTORE ADD SWAP2 ADD SWAP3 SWAP1 PUSH2 0x1D38 JUMP JUMPDEST DUP7 SWAP6 POP PUSH1 0x20 SWAP4 SWAP3 POP PUSH32 0x2A8969A8B1CC2562764EEE7E8F40F4A449C1DCDB5FEBFF06F45C736C3E07D6F2 SWAP7 SWAP5 SWAP2 POP PUSH1 0xFF NOT AND DUP4 DUP4 ADD MSTORE ISZERO ISZERO PUSH1 0x5 SHL ADD ADD SWAP2 SWAP3 CODESIZE PUSH2 0x1CF5 JUMP JUMPDEST POP PUSH1 0xFF PUSH1 0xA DUP3 ADD SLOAD AND PUSH2 0x1C96 JUMP JUMPDEST PUSH1 0xFF SWAP2 POP PUSH1 0xA8 SHR AND CODESIZE PUSH2 0x1C8F JUMP INVALID LOG2 PUSH5 0x6970667358 0x22 SLT KECCAK256 ADD CALLDATASIZE GASLIMIT 0xB7 LOG4 0xAE DUP7 0xDC PUSH26 0x79FE29A50515F1CC8962831C901CBFD87E66D70F21DC3464736F PUSH13 0x634300081C0033000000000000 "},"methodIdentifiers":{"deactivateKeyPerson(address)":"a769bfaa","electionResults(string)":"81929bac","getCandidateVotes(string,string)":"b7ff50fc","getCandidates(string)":"45534763","getElectionResultDetails(string)":"4f84d998","getPollingStationCount()":"b4968027","getSignatureStatus(string)":"8e0377c0","getSignerDetails(string)":"91403450","keyPersons(address)":"3b468ad3","owner()":"8da5cb5b","pollingStations(uint256)":"fe2442d7","registerKeyPerson(address,string,string,string,string,string)":"26fa6988","signAsObserver(string)":"ff0bd9d7","signAsPartyAgent(string)":"34408ee9","submitResults(string,string,string,string,uint256,string[],uint256[])":"5da87c7c"}}}}}